8=FIX.4.2|9=71|35=A|34=1|49=HTX_DC|52=20080912-13:23:19.555|56=MPNLOMS4NJ|98=0|108=30|10=208|8=FIX.4.2|9=59|35=0|34=2|49=HTX_DC|52=20080912-13:23:49.560|56=MPNLOMS4NJ|10=172|8=FIX.4.2|9=59|35=0|34=3|49=HTX_DC|52=20080912-13:24:19.563|56=MPNLOMS4NJ|10=174|8=FIX.4.2|9=59|35=0|34=4|49=HTX_DC|52=20080912-13:24:49.565|56=MPNLOMS4NJ|10=180|8=FIX.4.2|9=59|35=0|34=5|49=HTX_DC|52=20080912-13:25:19.566|56=MPNLOMS4NJ|10=180|8=FIX.4.2|9=59|35=0|34=6|49=HTX_DC|52=20080912-13:25:49.569|56=MPNLOMS4NJ|10=187|8=FIX.4.2|9=59|35=0|34=7|49=HTX_DC|52=20080912-13:26:19.570|56=MPNLOMS4NJ|10=178|8=FIX.4.2|9=59|35=0|34=8|49=HTX_DC|52=20080912-13:26:49.572|56=MPNLOMS4NJ|10=184|8=FIX.4.2|9=59|35=0|34=9|49=HTX_DC|52=20080912-13:27:19.574|56=MPNLOMS4NJ|10=185|8=FIX.4.2|9=60|35=0|34=10|49=HTX_DC|52=20080912-13:27:49.575|56=MPNLOMS4NJ|10=221|8=FIX.4.2|9=60|35=0|34=11|49=HTX_DC|52=20080912-13:28:19.578|56=MPNLOMS4NJ|10=223|8=FIX.4.2|9=60|35=0|34=12|49=HTX_DC|52=20080912-13:28:49.581|56=MPNLOMS4NJ|10=221|8=FIX.4.2|9=60|35=0|34=13|49=HTX_DC|52=20080912-13:29:19.583|56=MPNLOMS4NJ|10=222|
