8=FIX.4.0|9=088|35=A|49=INET|56=WCHVR1|43=N|52=20100201-12:00:03|122=20100201-12:00:03|34=1|98=0|108=50|10=080|8=FIX.4.0|9=098|35=0|49=INET|56=WCHVR1|43=N|52=20100201-12:00:03|122=20100201-12:00:03|34=2|112=1265025603.251514|10=086|8=FIX.4.0|9=076|35=0|49=INET|56=WCHVR1|43=N|52=20100201-12:00:53|122=20100201-12:00:53|34=3|10=045|8=FIX.4.0|9=085|35=1|49=INET|56=WCHVR1|43=N|52=20100201-12:00:54|122=20100201-12:00:54|34=4|112=_TR_|10=103|8=FIX.4.0|9=076|35=0|49=INET|56=WCHVR1|43=N|52=20100201-12:01:44|122=20100201-12:01:44|34=5|10=049|8=FIX.4.0|9=085|35=1|49=INET|56=WCHVR1|43=N|52=20100201-12:01:45|122=20100201-12:01:45|34=6|112=_TR_|10=107|8=FIX.4.0|9=076|35=0|49=INET|56=WCHVR1|43=N|52=20100201-12:02:35|122=20100201-12:02:35|34=7|10=053|8=FIX.4.0|9=085|35=1|49=INET|56=WCHVR1|43=N|52=20100201-12:02:36|122=20100201-12:02:36|34=8|112=_TR_|10=111|8=FIX.4.0|9=076|35=0|49=INET|56=WCHVR1|43=N|52=20100201-12:03:26|122=20100201-12:03:26|34=9|10=057|8=FIX.4.0|9=086|35=1|49=INET|56=WCHVR1|43=N|52=20100201-12:03:27|122=20100201-12:03:27|34=10|112=_TR_|10=155|8=FIX.4.0|9=077|35=0|49=INET|56=WCHVR1|43=N|52=20100201-12:04:17|122=20100201-12:04:17|34=11|10=101|8=FIX.4.0|9=086|35=1|49=INET|56=WCHVR1|43=N|52=20100201-12:04:18|122=20100201-12:04:18|34=12|112=_TR_|10=159|8=FIX.4.0|9=077|35=0|49=INET|56=WCHVR1|43=N|52=20100201-12:05:08|122=20100201-12:05:08|34=13|10=105|8=FIX.4.0|9=086|35=1|49=INET|56=WCHVR1|43=N|52=20100201-12:05:09|122=20100201-12:05:09|34=14|112=_TR_|10=163|8=FIX.4.0|9=077|35=0|49=INET|56=WCHVR1|43=N|52=20100201-12:05:59|122=20100201-12:05:59|34=15|10=119|8=FIX.4.0|9=086|35=1|49=INET|56=WCHVR1|43=N|52=20100201-12:06:00|122=20100201-12:06:00|34=16|112=_TR_|10=149|8=FIX.4.0|9=077|35=0|49=INET|56=WCHVR1|43=N|52=20100201-12:06:50|122=20100201-12:06:50|34=17|10=105|8=FIX.4.0|9=086|35=1|49=INET|56=WCHVR1|43=N|52=20100201-12:06:51|122=20100201-12:06:51|34=18|112=_TR_|10=163|8=FIX.4.0|9=077|35=0|49=INET|56=WCHVR1|43=N|52=20100201-12:07:41|122=20100201-12:07:41|34=19|10=109|8=FIX.4.0|9=086|35=1|49=INET|56=WCHVR1|43=N|52=20100201-12:07:42|122=20100201-12:07:42|34=20|112=_TR_|10=158|8=FIX.4.0|9=077|35=0|49=INET|56=WCHVR1|43=N|52=20100201-12:08:32|122=20100201-12:08:32|34=21|10=104|8=FIX.4.0|9=086|35=1|49=INET|56=WCHVR1|43=N|52=20100201-12:08:33|122=20100201-12:08:33|34=22|112=_TR_|10=162|8=FIX.4.0|9=077|35=0|49=INET|56=WCHVR1|43=N|52=20100201-12:09:23|122=20100201-12:09:23|34=23|10=108|8=FIX.4.0|9=086|35=1|49=INET|56=WCHVR1|43=N|52=20100201-12:09:24|122=20100201-12:09:24|34=24|112=_TR_|10=166|8=FIX.4.0|9=077|35=0|49=INET|56=WCHVR1|43=N|52=20100201-12:10:14|122=20100201-12:10:14|34=25|10=094|8=FIX.4.0|9=086|35=1|49=INET|56=WCHVR1|43=N|52=20100201-12:10:15|122=20100201-12:10:15|34=26|112=_TR_|10=152|8=FIX.4.0|9=077|35=0|49=INET|56=WCHVR1|43=N|52=20100201-12:11:05|122=20100201-12:11:05|34=27|10=098|8=FIX.4.0|9=086|35=1|49=INET|56=WCHVR1|43=N|52=20100201-12:11:06|122=20100201-12:11:06|34=28|112=_TR_|10=156|8=FIX.4.0|9=077|35=0|49=INET|56=WCHVR1|43=N|52=20100201-12:11:56|122=20100201-12:11:56|34=29|10=112|8=FIX.4.0|9=086|35=1|49=INET|56=WCHVR1|43=N|52=20100201-12:11:58|122=20100201-12:11:58|34=30|112=_TR_|10=163|8=FIX.4.0|9=077|35=0|49=INET|56=WCHVR1|43=N|52=20100201-12:12:48|122=20100201-12:12:48|34=31|10=109|8=FIX.4.0|9=086|35=1|49=INET|56=WCHVR1|43=N|52=20100201-12:12:49|122=20100201-12:12:49|34=32|112=_TR_|10=167|8=FIX.4.0|9=077|35=0|49=INET|56=WCHVR1|43=N|52=20100201-12:13:39|122=20100201-12:13:39|34=33|10=113|8=FIX.4.0|9=086|35=1|49=INET|56=WCHVR1|43=N|52=20100201-12:13:40|122=20100201-12:13:40|34=34|112=_TR_|10=153|8=FIX.4.0|9=077|35=0|49=INET|56=WCHVR1|43=N|52=20100201-12:14:30|122=20100201-12:14:30|34=35|10=099|8=FIX.4.0|9=086|35=1|49=INET|56=WCHVR1|43=N|52=20100201-12:14:31|122=20100201-12:14:31|34=36|112=_TR_|10=157|8=FIX.4.0|9=077|35=0|49=INET|56=WCHVR1|43=N|52=20100201-12:15:21|122=20100201-12:15:21|34=37|10=103|8=FIX.4.0|9=086|35=1|49=INET|56=WCHVR1|43=N|52=20100201-12:15:22|122=20100201-12:15:22|34=38|112=_TR_|10=161|8=FIX.4.0|9=077|35=0|49=INET|56=WCHVR1|43=N|52=20100201-12:16:12|122=20100201-12:16:12|34=39|10=107|8=FIX.4.0|9=086|35=1|49=INET|56=WCHVR1|43=N|52=20100201-12:16:13|122=20100201-12:16:13|34=40|112=_TR_|10=156|8=FIX.4.0|9=077|35=0|49=INET|56=WCHVR1|43=N|52=20100201-12:17:03|122=20100201-12:17:03|34=41|10=102|8=FIX.4.0|9=086|35=1|49=INET|56=WCHVR1|43=N|52=20100201-12:17:04|122=20100201-12:17:04|34=42|112=_TR_|10=160|8=FIX.4.0|9=077|35=0|49=INET|56=WCHVR1|43=N|52=20100201-12:17:54|122=20100201-12:17:54|34=43|10=116|8=FIX.4.0|9=086|35=1|49=INET|56=WCHVR1|43=N|52=20100201-12:17:55|122=20100201-12:17:55|34=44|112=_TR_|10=174|8=FIX.4.0|9=077|35=0|49=INET|56=WCHVR1|43=N|52=20100201-12:18:45|122=20100201-12:18:45|34=45|10=120|8=FIX.4.0|9=086|35=1|49=INET|56=WCHVR1|43=N|52=20100201-12:18:46|122=20100201-12:18:46|34=46|112=_TR_|10=178|8=FIX.4.0|9=077|35=0|49=INET|56=WCHVR1|43=N|52=20100201-12:19:36|122=20100201-12:19:36|34=47|10=124|8=FIX.4.0|9=086|35=1|49=INET|56=WCHVR1|43=N|52=20100201-12:19:37|122=20100201-12:19:37|34=48|112=_TR_|10=182|8=FIX.4.0|9=077|35=0|49=INET|56=WCHVR1|43=N|52=20100201-12:20:27|122=20100201-12:20:27|34=49|10=110|8=FIX.4.0|9=086|35=1|49=INET|56=WCHVR1|43=N|52=20100201-12:20:28|122=20100201-12:20:28|34=50|112=_TR_|10=159|8=FIX.4.0|9=077|35=0|49=INET|56=WCHVR1|43=N|52=20100201-12:21:18|122=20100201-12:21:18|34=51|10=105|8=FIX.4.0|9=086|35=1|49=INET|56=WCHVR1|43=N|52=20100201-12:21:19|122=20100201-12:21:19|34=52|112=_TR_|10=163|8=FIX.4.0|9=077|35=0|49=INET|56=WCHVR1|43=N|52=20100201-12:22:09|122=20100201-12:22:09|34=53|10=109|8=FIX.4.0|9=086|35=1|49=INET|56=WCHVR1|43=N|52=20100201-12:22:10|122=20100201-12:22:10|34=54|112=_TR_|10=149|8=FIX.4.0|9=077|35=0|49=INET|56=WCHVR1|43=N|52=20100201-12:23:00|122=20100201-12:23:00|34=55|10=095|8=FIX.4.0|9=086|35=1|49=INET|56=WCHVR1|43=N|52=20100201-12:23:01|122=20100201-12:23:01|34=56|112=_TR_|10=153|8=FIX.4.0|9=077|35=0|49=INET|56=WCHVR1|43=N|52=20100201-12:23:51|122=20100201-12:23:51|34=57|10=109|8=FIX.4.0|9=086|35=1|49=INET|56=WCHVR1|43=N|52=20100201-12:23:52|122=20100201-12:23:52|34=58|112=_TR_|10=167|8=FIX.4.0|9=077|35=0|49=INET|56=WCHVR1|43=N|52=20100201-12:24:42|122=20100201-12:24:42|34=59|10=113|8=FIX.4.0|9=086|35=1|49=INET|56=WCHVR1|43=N|52=20100201-12:24:43|122=20100201-12:24:43|34=60|112=_TR_|10=162|8=FIX.4.0|9=077|35=0|49=INET|56=WCHVR1|43=N|52=20100201-12:25:33|122=20100201-12:25:33|34=61|10=108|8=FIX.4.0|9=086|35=1|49=INET|56=WCHVR1|43=N|52=20100201-12:25:35|122=20100201-12:25:35|34=62|112=_TR_|10=168|8=FIX.4.0|9=077|35=0|49=INET|56=WCHVR1|43=N|52=20100201-12:26:25|122=20100201-12:26:25|34=63|10=114|8=FIX.4.0|9=086|35=1|49=INET|56=WCHVR1|43=N|52=20100201-12:26:26|122=20100201-12:26:26|34=64|112=_TR_|10=172|8=FIX.4.0|9=077|35=0|49=INET|56=WCHVR1|43=N|52=20100201-12:27:16|122=20100201-12:27:16|34=65|10=118|8=FIX.4.0|9=086|35=1|49=INET|56=WCHVR1|43=N|52=20100201-12:27:17|122=20100201-12:27:17|34=66|112=_TR_|10=176|8=FIX.4.0|9=077|35=0|49=INET|56=WCHVR1|43=N|52=20100201-12:28:07|122=20100201-12:28:07|34=67|10=122|8=FIX.4.0|9=086|35=1|49=INET|56=WCHVR1|43=N|52=20100201-12:28:08|122=20100201-12:28:08|34=68|112=_TR_|10=180|8=FIX.4.0|9=077|35=0|49=INET|56=WCHVR1|43=N|52=20100201-12:28:58|122=20100201-12:28:58|34=69|10=136|8=FIX.4.0|9=086|35=1|49=INET|56=WCHVR1|43=N|52=20100201-12:28:59|122=20100201-12:28:59|34=70|112=_TR_|10=185|8=FIX.4.0|9=077|35=0|49=INET|56=WCHVR1|43=N|52=20100201-12:29:49|122=20100201-12:29:49|34=71|10=131|8=FIX.4.0|9=086|35=1|49=INET|56=WCHVR1|43=N|52=20100201-12:29:50|122=20100201-12:29:50|34=72|112=_TR_|10=171|8=FIX.4.0|9=077|35=0|49=INET|56=WCHVR1|43=N|52=20100201-12:30:40|122=20100201-12:30:40|34=73|10=099|8=FIX.4.0|9=086|35=1|49=INET|56=WCHVR1|43=N|52=20100201-12:30:41|122=20100201-12:30:41|34=74|112=_TR_|10=157|8=FIX.4.0|9=077|35=0|49=INET|56=WCHVR1|43=N|52=20100201-12:31:31|122=20100201-12:31:31|34=75|10=103|8=FIX.4.0|9=086|35=1|49=INET|56=WCHVR1|43=N|52=20100201-12:31:32|122=20100201-12:31:32|34=76|112=_TR_|10=161|8=FIX.4.0|9=077|35=0|49=INET|56=WCHVR1|43=N|52=20100201-12:32:22|122=20100201-12:32:22|34=77|10=107|8=FIX.4.0|9=086|35=1|49=INET|56=WCHVR1|43=N|52=20100201-12:32:23|122=20100201-12:32:23|34=78|112=_TR_|10=165|8=FIX.4.0|9=077|35=0|49=INET|56=WCHVR1|43=N|52=20100201-12:33:13|122=20100201-12:33:13|34=79|10=111|8=FIX.4.0|9=086|35=1|49=INET|56=WCHVR1|43=N|52=20100201-12:33:14|122=20100201-12:33:14|34=80|112=_TR_|10=160|8=FIX.4.0|9=077|35=0|49=INET|56=WCHVR1|43=N|52=20100201-12:34:04|122=20100201-12:34:04|34=81|10=106|8=FIX.4.0|9=086|35=1|49=INET|56=WCHVR1|43=N|52=20100201-12:34:05|122=20100201-12:34:05|34=82|112=_TR_|10=164|8=FIX.4.0|9=077|35=0|49=INET|56=WCHVR1|43=N|52=20100201-12:34:55|122=20100201-12:34:55|34=83|10=120|8=FIX.4.0|9=086|35=1|49=INET|56=WCHVR1|43=N|52=20100201-12:34:56|122=20100201-12:34:56|34=84|112=_TR_|10=178|8=FIX.4.0|9=077|35=0|49=INET|56=WCHVR1|43=N|52=20100201-12:35:46|122=20100201-12:35:46|34=85|10=124|8=FIX.4.0|9=086|35=1|49=INET|56=WCHVR1|43=N|52=20100201-12:35:47|122=20100201-12:35:47|34=86|112=_TR_|10=182|8=FIX.4.0|9=077|35=0|49=INET|56=WCHVR1|43=N|52=20100201-12:36:37|122=20100201-12:36:37|34=87|10=128|8=FIX.4.0|9=086|35=1|49=INET|56=WCHVR1|43=N|52=20100201-12:36:38|122=20100201-12:36:38|34=88|112=_TR_|10=186|8=FIX.4.0|9=077|35=0|49=INET|56=WCHVR1|43=N|52=20100201-12:37:28|122=20100201-12:37:28|34=89|10=132|8=FIX.4.0|9=086|35=1|49=INET|56=WCHVR1|43=N|52=20100201-12:37:29|122=20100201-12:37:29|34=90|112=_TR_|10=181|8=FIX.4.0|9=077|35=0|49=INET|56=WCHVR1|43=N|52=20100201-12:38:19|122=20100201-12:38:19|34=91|10=127|8=FIX.4.0|9=086|35=1|49=INET|56=WCHVR1|43=N|52=20100201-12:38:20|122=20100201-12:38:20|34=92|112=_TR_|10=167|8=FIX.4.0|9=077|35=0|49=INET|56=WCHVR1|43=N|52=20100201-12:39:10|122=20100201-12:39:10|34=93|10=113|8=FIX.4.0|9=086|35=1|49=INET|56=WCHVR1|43=N|52=20100201-12:39:12|122=20100201-12:39:12|34=94|112=_TR_|10=173|8=FIX.4.0|9=077|35=0|49=INET|56=WCHVR1|43=N|52=20100201-12:40:02|122=20100201-12:40:02|34=95|10=101|8=FIX.4.0|9=086|35=1|49=INET|56=WCHVR1|43=N|52=20100201-12:40:03|122=20100201-12:40:03|34=96|112=_TR_|10=159|8=FIX.4.0|9=077|35=0|49=INET|56=WCHVR1|43=N|52=20100201-12:40:53|122=20100201-12:40:53|34=97|10=115|8=FIX.4.0|9=086|35=1|49=INET|56=WCHVR1|43=N|52=20100201-12:40:54|122=20100201-12:40:54|34=98|112=_TR_|10=173|8=FIX.4.0|9=077|35=0|49=INET|56=WCHVR1|43=N|52=20100201-12:41:44|122=20100201-12:41:44|34=99|10=119|8=FIX.4.0|9=087|35=1|49=INET|56=WCHVR1|43=N|52=20100201-12:41:45|122=20100201-12:41:45|34=100|112=_TR_|10=208|8=FIX.4.0|9=078|35=0|49=INET|56=WCHVR1|43=N|52=20100201-12:42:35|122=20100201-12:42:35|34=101|10=154|8=FIX.4.0|9=087|35=1|49=INET|56=WCHVR1|43=N|52=20100201-12:42:36|122=20100201-12:42:36|34=102|112=_TR_|10=212|8=FIX.4.0|9=078|35=0|49=INET|56=WCHVR1|43=N|52=20100201-12:43:26|122=20100201-12:43:26|34=103|10=158|8=FIX.4.0|9=078|35=0|49=INET|56=WCHVR1|43=N|52=20100201-12:44:16|122=20100201-12:44:16|34=104|10=159|8=FIX.4.0|9=087|35=1|49=INET|56=WCHVR1|43=N|52=20100201-12:44:18|122=20100201-12:44:18|34=105|112=_TR_|10=219|8=FIX.4.0|9=078|35=0|49=INET|56=WCHVR1|43=N|52=20100201-12:45:08|122=20100201-12:45:08|34=106|10=165|8=FIX.4.0|9=087|35=1|49=INET|56=WCHVR1|43=N|52=20100201-12:45:09|122=20100201-12:45:09|34=107|112=_TR_|10=223|8=FIX.4.0|9=078|35=0|49=INET|56=WCHVR1|43=N|52=20100201-12:45:59|122=20100201-12:45:59|34=108|10=179|8=FIX.4.0|9=087|35=1|49=INET|56=WCHVR1|43=N|52=20100201-12:46:00|122=20100201-12:46:00|34=109|112=_TR_|10=209|8=FIX.4.0|9=078|35=0|49=INET|56=WCHVR1|43=N|52=20100201-12:46:50|122=20100201-12:46:50|34=110|10=156|8=FIX.4.0|9=087|35=1|49=INET|56=WCHVR1|43=N|52=20100201-12:46:51|122=20100201-12:46:51|34=111|112=_TR_|10=214|8=FIX.4.0|9=078|35=0|49=INET|56=WCHVR1|43=N|52=20100201-12:47:41|122=20100201-12:47:41|34=112|10=160|8=FIX.4.0|9=087|35=1|49=INET|56=WCHVR1|43=N|52=20100201-12:47:42|122=20100201-12:47:42|34=113|112=_TR_|10=218|8=FIX.4.0|9=078|35=0|49=INET|56=WCHVR1|43=N|52=20100201-12:48:32|122=20100201-12:48:32|34=114|10=164|8=FIX.4.0|9=087|35=1|49=INET|56=WCHVR1|43=N|52=20100201-12:48:33|122=20100201-12:48:33|34=115|112=_TR_|10=222|8=FIX.4.0|9=078|35=0|49=INET|56=WCHVR1|43=N|52=20100201-12:49:23|122=20100201-12:49:23|34=116|10=168|8=FIX.4.0|9=087|35=1|49=INET|56=WCHVR1|43=N|52=20100201-12:49:24|122=20100201-12:49:24|34=117|112=_TR_|10=226|8=FIX.4.0|9=078|35=0|49=INET|56=WCHVR1|43=N|52=20100201-12:50:14|122=20100201-12:50:14|34=118|10=154|8=FIX.4.0|9=087|35=1|49=INET|56=WCHVR1|43=N|52=20100201-12:50:15|122=20100201-12:50:15|34=119|112=_TR_|10=212|8=FIX.4.0|9=078|35=0|49=INET|56=WCHVR1|43=N|52=20100201-12:51:05|122=20100201-12:51:05|34=120|10=149|8=FIX.4.0|9=087|35=1|49=INET|56=WCHVR1|43=N|52=20100201-12:51:06|122=20100201-12:51:06|34=121|112=_TR_|10=207|8=FIX.4.0|9=078|35=0|49=INET|56=WCHVR1|43=N|52=20100201-12:51:56|122=20100201-12:51:56|34=122|10=163|8=FIX.4.0|9=087|35=1|49=INET|56=WCHVR1|43=N|52=20100201-12:51:57|122=20100201-12:51:57|34=123|112=_TR_|10=221|8=FIX.4.0|9=078|35=0|49=INET|56=WCHVR1|43=N|52=20100201-12:52:47|122=20100201-12:52:47|34=124|10=167|8=FIX.4.0|9=087|35=1|49=INET|56=WCHVR1|43=N|52=20100201-12:52:48|122=20100201-12:52:48|34=125|112=_TR_|10=225|8=FIX.4.0|9=078|35=0|49=INET|56=WCHVR1|43=N|52=20100201-12:53:38|122=20100201-12:53:38|34=126|10=171|8=FIX.4.0|9=087|35=1|49=INET|56=WCHVR1|43=N|52=20100201-12:53:39|122=20100201-12:53:39|34=127|112=_TR_|10=229|8=FIX.4.0|9=078|35=0|49=INET|56=WCHVR1|43=N|52=20100201-12:54:29|122=20100201-12:54:29|34=128|10=175|8=FIX.4.0|9=087|35=1|49=INET|56=WCHVR1|43=N|52=20100201-12:54:30|122=20100201-12:54:30|34=129|112=_TR_|10=215|8=FIX.4.0|9=078|35=0|49=INET|56=WCHVR1|43=N|52=20100201-12:55:20|122=20100201-12:55:20|34=130|10=152|8=FIX.4.0|9=078|35=0|49=INET|56=WCHVR1|43=N|52=20100201-12:56:10|122=20100201-12:56:10|34=131|10=153|8=FIX.4.0|9=078|35=0|49=INET|56=WCHVR1|43=N|52=20100201-12:57:00|122=20100201-12:57:00|34=132|10=154|8=FIX.4.0|9=087|35=1|49=INET|56=WCHVR1|43=N|52=20100201-12:57:03|122=20100201-12:57:03|34=133|112=_TR_|10=216|8=FIX.4.0|9=078|35=0|49=INET|56=WCHVR1|43=N|52=20100201-12:57:53|122=20100201-12:57:53|34=134|10=172|8=FIX.4.0|9=087|35=1|49=INET|56=WCHVR1|43=N|52=20100201-12:57:54|122=20100201-12:57:54|34=135|112=_TR_|10=230|8=FIX.4.0|9=078|35=0|49=INET|56=WCHVR1|43=N|52=20100201-12:58:44|122=20100201-12:58:44|34=136|10=176|8=FIX.4.0|9=087|35=1|49=INET|56=WCHVR1|43=N|52=20100201-12:58:45|122=20100201-12:58:45|34=137|112=_TR_|10=234|8=FIX.4.0|9=078|35=0|49=INET|56=WCHVR1|43=N|52=20100201-12:59:35|122=20100201-12:59:35|34=138|10=180|8=FIX.4.0|9=087|35=1|49=INET|56=WCHVR1|43=N|52=20100201-12:59:36|122=20100201-12:59:36|34=139|112=_TR_|10=238|8=FIX.4.0|9=078|35=0|49=INET|56=WCHVR1|43=N|52=20100201-13:00:26|122=20100201-13:00:26|34=140|10=147|8=FIX.4.0|9=087|35=1|49=INET|56=WCHVR1|43=N|52=20100201-13:00:27|122=20100201-13:00:27|34=141|112=_TR_|10=205|8=FIX.4.0|9=078|35=0|49=INET|56=WCHVR1|43=N|52=20100201-13:01:17|122=20100201-13:01:17|34=142|10=151|8=FIX.4.0|9=087|35=1|49=INET|56=WCHVR1|43=N|52=20100201-13:01:18|122=20100201-13:01:18|34=143|112=_TR_|10=209|8=FIX.4.0|9=078|35=0|49=INET|56=WCHVR1|43=N|52=20100201-13:02:08|122=20100201-13:02:08|34=144|10=155|8=FIX.4.0|9=087|35=1|49=INET|56=WCHVR1|43=N|52=20100201-13:02:09|122=20100201-13:02:09|34=145|112=_TR_|10=213|8=FIX.4.0|9=078|35=0|49=INET|56=WCHVR1|43=N|52=20100201-13:02:59|122=20100201-13:02:59|34=146|10=169|8=FIX.4.0|9=078|35=0|49=INET|56=WCHVR1|43=N|52=20100201-13:03:49|122=20100201-13:03:49|34=147|10=170|8=FIX.4.0|9=087|35=1|49=INET|56=WCHVR1|43=N|52=20100201-13:03:51|122=20100201-13:03:51|34=148|112=_TR_|10=212|8=FIX.4.0|9=078|35=0|49=INET|56=WCHVR1|43=N|52=20100201-13:04:41|122=20100201-13:04:41|34=149|10=158|8=FIX.4.0|9=087|35=1|49=INET|56=WCHVR1|43=N|52=20100201-13:04:42|122=20100201-13:04:42|34=150|112=_TR_|10=207|8=FIX.4.0|9=078|35=0|49=INET|56=WCHVR1|43=N|52=20100201-13:05:32|122=20100201-13:05:32|34=151|10=153|8=FIX.4.0|9=087|35=1|49=INET|56=WCHVR1|43=N|52=20100201-13:05:33|122=20100201-13:05:33|34=152|112=_TR_|10=211|8=FIX.4.0|9=078|35=0|49=INET|56=WCHVR1|43=N|52=20100201-13:06:23|122=20100201-13:06:23|34=153|10=157|8=FIX.4.0|9=087|35=1|49=INET|56=WCHVR1|43=N|52=20100201-13:06:24|122=20100201-13:06:24|34=154|112=_TR_|10=215|8=FIX.4.0|9=078|35=0|49=INET|56=WCHVR1|43=N|52=20100201-13:07:14|122=20100201-13:07:14|34=155|10=161|8=FIX.4.0|9=087|35=1|49=INET|56=WCHVR1|43=N|52=20100201-13:07:15|122=20100201-13:07:15|34=156|112=_TR_|10=219|8=FIX.4.0|9=078|35=0|49=INET|56=WCHVR1|43=N|52=20100201-13:08:05|122=20100201-13:08:05|34=157|10=165|8=FIX.4.0|9=087|35=1|49=INET|56=WCHVR1|43=N|52=20100201-13:08:06|122=20100201-13:08:06|34=158|112=_TR_|10=223|8=FIX.4.0|9=078|35=0|49=INET|56=WCHVR1|43=N|52=20100201-13:08:56|122=20100201-13:08:56|34=159|10=179|8=FIX.4.0|9=087|35=1|49=INET|56=WCHVR1|43=N|52=20100201-13:08:57|122=20100201-13:08:57|34=160|112=_TR_|10=228|8=FIX.4.0|9=078|35=0|49=INET|56=WCHVR1|43=N|52=20100201-13:09:47|122=20100201-13:09:47|34=161|10=174|8=FIX.4.0|9=087|35=1|49=INET|56=WCHVR1|43=N|52=20100201-13:09:48|122=20100201-13:09:48|34=162|112=_TR_|10=232|8=FIX.4.0|9=078|35=0|49=INET|56=WCHVR1|43=N|52=20100201-13:10:38|122=20100201-13:10:38|34=163|10=160|8=FIX.4.0|9=087|35=1|49=INET|56=WCHVR1|43=N|52=20100201-13:10:40|122=20100201-13:10:40|34=164|112=_TR_|10=202|8=FIX.4.0|9=078|35=0|49=INET|56=WCHVR1|43=N|52=20100201-13:11:30|122=20100201-13:11:30|34=165|10=148|8=FIX.4.0|9=087|35=1|49=INET|56=WCHVR1|43=N|52=20100201-13:11:31|122=20100201-13:11:31|34=166|112=_TR_|10=206|8=FIX.4.0|9=078|35=0|49=INET|56=WCHVR1|43=N|52=20100201-13:12:21|122=20100201-13:12:21|34=167|10=152|8=FIX.4.0|9=087|35=1|49=INET|56=WCHVR1|43=N|52=20100201-13:12:22|122=20100201-13:12:22|34=168|112=_TR_|10=210|8=FIX.4.0|9=078|35=0|49=INET|56=WCHVR1|43=N|52=20100201-13:13:12|122=20100201-13:13:12|34=169|10=156|8=FIX.4.0|9=087|35=1|49=INET|56=WCHVR1|43=N|52=20100201-13:13:13|122=20100201-13:13:13|34=170|112=_TR_|10=205|8=FIX.4.0|9=078|35=0|49=INET|56=WCHVR1|43=N|52=20100201-13:14:03|122=20100201-13:14:03|34=171|10=151|8=FIX.4.0|9=087|35=1|49=INET|56=WCHVR1|43=N|52=20100201-13:14:04|122=20100201-13:14:04|34=172|112=_TR_|10=209|8=FIX.4.0|9=078|35=0|49=INET|56=WCHVR1|43=N|52=20100201-13:14:54|122=20100201-13:14:54|34=173|10=165|8=FIX.4.0|9=087|35=1|49=INET|56=WCHVR1|43=N|52=20100201-13:14:55|122=20100201-13:14:55|34=174|112=_TR_|10=223|8=FIX.4.0|9=078|35=0|49=INET|56=WCHVR1|43=N|52=20100201-13:15:45|122=20100201-13:15:45|34=175|10=169|8=FIX.4.0|9=087|35=1|49=INET|56=WCHVR1|43=N|52=20100201-13:15:46|122=20100201-13:15:46|34=176|112=_TR_|10=227|8=FIX.4.0|9=078|35=0|49=INET|56=WCHVR1|43=N|52=20100201-13:16:36|122=20100201-13:16:36|34=177|10=173|8=FIX.4.0|9=087|35=1|49=INET|56=WCHVR1|43=N|52=20100201-13:16:37|122=20100201-13:16:37|34=178|112=_TR_|10=231|8=FIX.4.0|9=078|35=0|49=INET|56=WCHVR1|43=N|52=20100201-13:17:27|122=20100201-13:17:27|34=179|10=177|8=FIX.4.0|9=087|35=1|49=INET|56=WCHVR1|43=N|52=20100201-13:17:28|122=20100201-13:17:28|34=180|112=_TR_|10=226|8=FIX.4.0|9=078|35=0|49=INET|56=WCHVR1|43=N|52=20100201-13:18:18|122=20100201-13:18:18|34=181|10=172|8=FIX.4.0|9=078|35=0|49=INET|56=WCHVR1|43=N|52=20100201-13:19:08|122=20100201-13:19:08|34=182|10=173|8=FIX.4.0|9=087|35=1|49=INET|56=WCHVR1|43=N|52=20100201-13:19:10|122=20100201-13:19:10|34=183|112=_TR_|10=215|8=FIX.4.0|9=078|35=0|49=INET|56=WCHVR1|43=N|52=20100201-13:20:00|122=20100201-13:20:00|34=184|10=143|8=FIX.4.0|9=087|35=1|49=INET|56=WCHVR1|43=N|52=20100201-13:20:01|122=20100201-13:20:01|34=185|112=_TR_|10=201|8=FIX.4.0|9=078|35=0|49=INET|56=WCHVR1|43=N|52=20100201-13:20:51|122=20100201-13:20:51|34=186|10=157|8=FIX.4.0|9=087|35=1|49=INET|56=WCHVR1|43=N|52=20100201-13:20:52|122=20100201-13:20:52|34=187|112=_TR_|10=215|8=FIX.4.0|9=078|35=0|49=INET|56=WCHVR1|43=N|52=20100201-13:21:42|122=20100201-13:21:42|34=188|10=161|8=FIX.4.0|9=087|35=1|49=INET|56=WCHVR1|43=N|52=20100201-13:21:43|122=20100201-13:21:43|34=189|112=_TR_|10=219|8=FIX.4.0|9=078|35=0|49=INET|56=WCHVR1|43=N|52=20100201-13:22:33|122=20100201-13:22:33|34=190|10=156|8=FIX.4.0|9=087|35=1|49=INET|56=WCHVR1|43=N|52=20100201-13:22:34|122=20100201-13:22:34|34=191|112=_TR_|10=214|8=FIX.4.0|9=078|35=0|49=INET|56=WCHVR1|43=N|52=20100201-13:23:24|122=20100201-13:23:24|34=192|10=160|8=FIX.4.0|9=087|35=1|49=INET|56=WCHVR1|43=N|52=20100201-13:23:25|122=20100201-13:23:25|34=193|112=_TR_|10=218|8=FIX.4.0|9=078|35=0|49=INET|56=WCHVR1|43=N|52=20100201-13:24:15|122=20100201-13:24:15|34=194|10=164|8=FIX.4.0|9=087|35=1|49=INET|56=WCHVR1|43=N|52=20100201-13:24:16|122=20100201-13:24:16|34=195|112=_TR_|10=222|8=FIX.4.0|9=078|35=0|49=INET|56=WCHVR1|43=N|52=20100201-13:25:06|122=20100201-13:25:06|34=196|10=168|8=FIX.4.0|9=087|35=1|49=INET|56=WCHVR1|43=N|52=20100201-13:25:07|122=20100201-13:25:07|34=197|112=_TR_|10=226|8=FIX.4.0|9=078|35=0|49=INET|56=WCHVR1|43=N|52=20100201-13:25:57|122=20100201-13:25:57|34=198|10=182|8=FIX.4.0|9=087|35=1|49=INET|56=WCHVR1|43=N|52=20100201-13:25:58|122=20100201-13:25:58|34=199|112=_TR_|10=240|8=FIX.4.0|9=078|35=0|49=INET|56=WCHVR1|43=N|52=20100201-13:26:48|122=20100201-13:26:48|34=200|10=168|8=FIX.4.0|9=078|35=0|49=INET|56=WCHVR1|43=N|52=20100201-13:27:38|122=20100201-13:27:38|34=201|10=169|8=FIX.4.0|9=087|35=1|49=INET|56=WCHVR1|43=N|52=20100201-13:27:40|122=20100201-13:27:40|34=202|112=_TR_|10=211|8=FIX.4.0|9=078|35=0|49=INET|56=WCHVR1|43=N|52=20100201-13:28:30|122=20100201-13:28:30|34=203|10=157|8=FIX.4.0|9=087|35=1|49=INET|56=WCHVR1|43=N|52=20100201-13:28:31|122=20100201-13:28:31|34=204|112=_TR_|10=215|8=FIX.4.0|9=078|35=0|49=INET|56=WCHVR1|43=N|52=20100201-13:29:21|122=20100201-13:29:21|34=205|10=161|8=FIX.4.0|9=087|35=1|49=INET|56=WCHVR1|43=N|52=20100201-13:29:22|122=20100201-13:29:22|34=206|112=_TR_|10=219|8=FIX.4.0|9=078|35=0|49=INET|56=WCHVR1|43=N|52=20100201-13:30:12|122=20100201-13:30:12|34=207|10=147|8=FIX.4.0|9=087|35=1|49=INET|56=WCHVR1|43=N|52=20100201-13:30:13|122=20100201-13:30:13|34=208|112=_TR_|10=205|8=FIX.4.0|9=078|35=0|49=INET|56=WCHVR1|43=N|52=20100201-13:31:03|122=20100201-13:31:03|34=209|10=151|8=FIX.4.0|9=087|35=1|49=INET|56=WCHVR1|43=N|52=20100201-13:31:04|122=20100201-13:31:04|34=210|112=_TR_|10=200|8=FIX.4.0|9=078|35=0|49=INET|56=WCHVR1|43=N|52=20100201-13:31:54|122=20100201-13:31:54|34=211|10=156|8=FIX.4.0|9=087|35=1|49=INET|56=WCHVR1|43=N|52=20100201-13:31:55|122=20100201-13:31:55|34=212|112=_TR_|10=214|8=FIX.4.0|9=078|35=0|49=INET|56=WCHVR1|43=N|52=20100201-13:32:45|122=20100201-13:32:45|34=213|10=160|8=FIX.4.0|9=087|35=1|49=INET|56=WCHVR1|43=N|52=20100201-13:32:46|122=20100201-13:32:46|34=214|112=_TR_|10=218|8=FIX.4.0|9=078|35=0|49=INET|56=WCHVR1|43=N|52=20100201-13:33:36|122=20100201-13:33:36|34=215|10=164|8=FIX.4.0|9=087|35=1|49=INET|56=WCHVR1|43=N|52=20100201-13:33:37|122=20100201-13:33:37|34=216|112=_TR_|10=222|8=FIX.4.0|9=078|35=0|49=INET|56=WCHVR1|43=N|52=20100201-13:34:27|122=20100201-13:34:27|34=217|10=168|8=FIX.4.0|9=087|35=1|49=INET|56=WCHVR1|43=N|52=20100201-13:34:28|122=20100201-13:34:28|34=218|112=_TR_|10=226|8=FIX.4.0|9=078|35=0|49=INET|56=WCHVR1|43=N|52=20100201-13:35:18|122=20100201-13:35:18|34=219|10=172|8=FIX.4.0|9=078|35=0|49=INET|56=WCHVR1|43=N|52=20100201-13:36:08|122=20100201-13:36:08|34=220|10=164|8=FIX.4.0|9=087|35=1|49=INET|56=WCHVR1|43=N|52=20100201-13:36:10|122=20100201-13:36:10|34=221|112=_TR_|10=206|8=FIX.4.0|9=078|35=0|49=INET|56=WCHVR1|43=N|52=20100201-13:37:00|122=20100201-13:37:00|34=222|10=152|8=FIX.4.0|9=087|35=1|49=INET|56=WCHVR1|43=N|52=20100201-13:37:01|122=20100201-13:37:01|34=223|112=_TR_|10=210|8=FIX.4.0|9=078|35=0|49=INET|56=WCHVR1|43=N|52=20100201-13:37:51|122=20100201-13:37:51|34=224|10=166|8=FIX.4.0|9=087|35=1|49=INET|56=WCHVR1|43=N|52=20100201-13:37:52|122=20100201-13:37:52|34=225|112=_TR_|10=224|8=FIX.4.0|9=078|35=0|49=INET|56=WCHVR1|43=N|52=20100201-13:38:42|122=20100201-13:38:42|34=226|10=170|8=FIX.4.0|9=087|35=1|49=INET|56=WCHVR1|43=N|52=20100201-13:38:43|122=20100201-13:38:43|34=227|112=_TR_|10=228|8=FIX.4.0|9=078|35=0|49=INET|56=WCHVR1|43=N|52=20100201-13:39:33|122=20100201-13:39:33|34=228|10=174|8=FIX.4.0|9=087|35=1|49=INET|56=WCHVR1|43=N|52=20100201-13:39:34|122=20100201-13:39:34|34=229|112=_TR_|10=232|8=FIX.4.0|9=078|35=0|49=INET|56=WCHVR1|43=N|52=20100201-13:40:24|122=20100201-13:40:24|34=230|10=151|8=FIX.4.0|9=087|35=1|49=INET|56=WCHVR1|43=N|52=20100201-13:40:25|122=20100201-13:40:25|34=231|112=_TR_|10=209|8=FIX.4.0|9=078|35=0|49=INET|56=WCHVR1|43=N|52=20100201-13:41:15|122=20100201-13:41:15|34=232|10=155|8=FIX.4.0|9=087|35=1|49=INET|56=WCHVR1|43=N|52=20100201-13:41:16|122=20100201-13:41:16|34=233|112=_TR_|10=213|8=FIX.4.0|9=078|35=0|49=INET|56=WCHVR1|43=N|52=20100201-13:42:06|122=20100201-13:42:06|34=234|10=159|8=FIX.4.0|9=087|35=1|49=INET|56=WCHVR1|43=N|52=20100201-13:42:07|122=20100201-13:42:07|34=235|112=_TR_|10=217|8=FIX.4.0|9=078|35=0|49=INET|56=WCHVR1|43=N|52=20100201-13:42:57|122=20100201-13:42:57|34=236|10=173|8=FIX.4.0|9=087|35=1|49=INET|56=WCHVR1|43=N|52=20100201-13:42:58|122=20100201-13:42:58|34=237|112=_TR_|10=231|8=FIX.4.0|9=078|35=0|49=INET|56=WCHVR1|43=N|52=20100201-13:43:48|122=20100201-13:43:48|34=238|10=177|8=FIX.4.0|9=087|35=1|49=INET|56=WCHVR1|43=N|52=20100201-13:43:49|122=20100201-13:43:49|34=239|112=_TR_|10=235|8=FIX.4.0|9=078|35=0|49=INET|56=WCHVR1|43=N|52=20100201-13:44:39|122=20100201-13:44:39|34=240|10=172|8=FIX.4.0|9=087|35=1|49=INET|56=WCHVR1|43=N|52=20100201-13:44:40|122=20100201-13:44:40|34=241|112=_TR_|10=212|8=FIX.4.0|9=078|35=0|49=INET|56=WCHVR1|43=N|52=20100201-13:45:30|122=20100201-13:45:30|34=242|10=158|8=FIX.4.0|9=087|35=1|49=INET|56=WCHVR1|43=N|52=20100201-13:45:31|122=20100201-13:45:31|34=243|112=_TR_|10=216|8=FIX.4.0|9=078|35=0|49=INET|56=WCHVR1|43=N|52=20100201-13:46:21|122=20100201-13:46:21|34=244|10=162|8=FIX.4.0|9=087|35=1|49=INET|56=WCHVR1|43=N|52=20100201-13:46:22|122=20100201-13:46:22|34=245|112=_TR_|10=220|8=FIX.4.0|9=078|35=0|49=INET|56=WCHVR1|43=N|52=20100201-13:47:12|122=20100201-13:47:12|34=246|10=166|8=FIX.4.0|9=087|35=1|49=INET|56=WCHVR1|43=N|52=20100201-13:47:13|122=20100201-13:47:13|34=247|112=_TR_|10=224|8=FIX.4.0|9=078|35=0|49=INET|56=WCHVR1|43=N|52=20100201-13:48:03|122=20100201-13:48:03|34=248|10=170|8=FIX.4.0|9=087|35=1|49=INET|56=WCHVR1|43=N|52=20100201-13:48:04|122=20100201-13:48:04|34=249|112=_TR_|10=228|8=FIX.4.0|9=078|35=0|49=INET|56=WCHVR1|43=N|52=20100201-13:48:54|122=20100201-13:48:54|34=250|10=175|8=FIX.4.0|9=078|35=0|49=INET|56=WCHVR1|43=N|52=20100201-13:49:44|122=20100201-13:49:44|34=251|10=176|8=FIX.4.0|9=087|35=1|49=INET|56=WCHVR1|43=N|52=20100201-13:49:46|122=20100201-13:49:46|34=252|112=_TR_|10=236|8=FIX.4.0|9=078|35=0|49=INET|56=WCHVR1|43=N|52=20100201-13:50:36|122=20100201-13:50:36|34=253|10=164|8=FIX.4.0|9=087|35=1|49=INET|56=WCHVR1|43=N|52=20100201-13:50:37|122=20100201-13:50:37|34=254|112=_TR_|10=222|8=FIX.4.0|9=078|35=0|49=INET|56=WCHVR1|43=N|52=20100201-13:51:27|122=20100201-13:51:27|34=255|10=168|8=FIX.4.0|9=087|35=1|49=INET|56=WCHVR1|43=N|52=20100201-13:51:28|122=20100201-13:51:28|34=256|112=_TR_|10=226|8=FIX.4.0|9=078|35=0|49=INET|56=WCHVR1|43=N|52=20100201-13:52:18|122=20100201-13:52:18|34=257|10=172|8=FIX.4.0|9=087|35=1|49=INET|56=WCHVR1|43=N|52=20100201-13:52:19|122=20100201-13:52:19|34=258|112=_TR_|10=230|8=FIX.4.0|9=078|35=0|49=INET|56=WCHVR1|43=N|52=20100201-13:53:09|122=20100201-13:53:09|34=259|10=176|8=FIX.4.0|9=087|35=1|49=INET|56=WCHVR1|43=N|52=20100201-13:53:10|122=20100201-13:53:10|34=260|112=_TR_|10=207|8=FIX.4.0|9=078|35=0|49=INET|56=WCHVR1|43=N|52=20100201-13:54:00|122=20100201-13:54:00|34=261|10=153|8=FIX.4.0|9=087|35=1|49=INET|56=WCHVR1|43=N|52=20100201-13:54:01|122=20100201-13:54:01|34=262|112=_TR_|10=211|8=FIX.4.0|9=078|35=0|49=INET|56=WCHVR1|43=N|52=20100201-13:54:51|122=20100201-13:54:51|34=263|10=167|8=FIX.4.0|9=087|35=1|49=INET|56=WCHVR1|43=N|52=20100201-13:54:52|122=20100201-13:54:52|34=264|112=_TR_|10=225|8=FIX.4.0|9=078|35=0|49=INET|56=WCHVR1|43=N|52=20100201-13:55:42|122=20100201-13:55:42|34=265|10=171|8=FIX.4.0|9=087|35=1|49=INET|56=WCHVR1|43=N|52=20100201-13:55:43|122=20100201-13:55:43|34=266|112=_TR_|10=229|8=FIX.4.0|9=078|35=0|49=INET|56=WCHVR1|43=N|52=20100201-13:56:33|122=20100201-13:56:33|34=267|10=175|8=FIX.4.0|9=087|35=1|49=INET|56=WCHVR1|43=N|52=20100201-13:56:34|122=20100201-13:56:34|34=268|112=_TR_|10=233|8=FIX.4.0|9=078|35=0|49=INET|56=WCHVR1|43=N|52=20100201-13:57:24|122=20100201-13:57:24|34=269|10=179|8=FIX.4.0|9=087|35=1|49=INET|56=WCHVR1|43=N|52=20100201-13:57:25|122=20100201-13:57:25|34=270|112=_TR_|10=228|8=FIX.4.0|9=078|35=0|49=INET|56=WCHVR1|43=N|52=20100201-13:58:15|122=20100201-13:58:15|34=271|10=174|8=FIX.4.0|9=087|35=1|49=INET|56=WCHVR1|43=N|52=20100201-13:58:16|122=20100201-13:58:16|34=272|112=_TR_|10=232|8=FIX.4.0|9=078|35=0|49=INET|56=WCHVR1|43=N|52=20100201-13:59:06|122=20100201-13:59:06|34=273|10=178|8=FIX.4.0|9=087|35=1|49=INET|56=WCHVR1|43=N|52=20100201-13:59:07|122=20100201-13:59:07|34=274|112=_TR_|10=236|8=FIX.4.0|9=078|35=0|49=INET|56=WCHVR1|43=N|52=20100201-13:59:57|122=20100201-13:59:57|34=275|10=192|8=FIX.4.0|9=087|35=1|49=INET|56=WCHVR1|43=N|52=20100201-13:59:58|122=20100201-13:59:58|34=276|112=_TR_|10=250|8=FIX.4.0|9=078|35=0|49=INET|56=WCHVR1|43=N|52=20100201-14:00:48|122=20100201-14:00:48|34=277|10=168|8=FIX.4.0|9=087|35=1|49=INET|56=WCHVR1|43=N|52=20100201-14:00:49|122=20100201-14:00:49|34=278|112=_TR_|10=226|8=FIX.4.0|9=078|35=0|49=INET|56=WCHVR1|43=N|52=20100201-14:01:39|122=20100201-14:01:39|34=279|10=172|8=FIX.4.0|9=087|35=1|49=INET|56=WCHVR1|43=N|52=20100201-14:01:40|122=20100201-14:01:40|34=280|112=_TR_|10=203|8=FIX.4.0|9=078|35=0|49=INET|56=WCHVR1|43=N|52=20100201-14:02:30|122=20100201-14:02:30|34=281|10=149|8=FIX.4.0|9=087|35=1|49=INET|56=WCHVR1|43=N|52=20100201-14:02:31|122=20100201-14:02:31|34=282|112=_TR_|10=207|8=FIX.4.0|9=078|35=0|49=INET|56=WCHVR1|43=N|52=20100201-14:03:21|122=20100201-14:03:21|34=283|10=153|8=FIX.4.0|9=087|35=1|49=INET|56=WCHVR1|43=N|52=20100201-14:03:22|122=20100201-14:03:22|34=284|112=_TR_|10=211|8=FIX.4.0|9=078|35=0|49=INET|56=WCHVR1|43=N|52=20100201-14:04:12|122=20100201-14:04:12|34=285|10=157|8=FIX.4.0|9=087|35=1|49=INET|56=WCHVR1|43=N|52=20100201-14:04:13|122=20100201-14:04:13|34=286|112=_TR_|10=215|8=FIX.4.0|9=078|35=0|49=INET|56=WCHVR1|43=N|52=20100201-14:05:03|122=20100201-14:05:03|34=287|10=161|8=FIX.4.0|9=087|35=1|49=INET|56=WCHVR1|43=N|52=20100201-14:05:05|122=20100201-14:05:05|34=288|112=_TR_|10=221|8=FIX.4.0|9=078|35=0|49=INET|56=WCHVR1|43=N|52=20100201-14:05:55|122=20100201-14:05:55|34=289|10=177|8=FIX.4.0|9=087|35=1|49=INET|56=WCHVR1|43=N|52=20100201-14:05:56|122=20100201-14:05:56|34=290|112=_TR_|10=226|8=FIX.4.0|9=078|35=0|49=INET|56=WCHVR1|43=N|52=20100201-14:06:46|122=20100201-14:06:46|34=291|10=172|8=FIX.4.0|9=087|35=1|49=INET|56=WCHVR1|43=N|52=20100201-14:06:47|122=20100201-14:06:47|34=292|112=_TR_|10=230|8=FIX.4.0|9=078|35=0|49=INET|56=WCHVR1|43=N|52=20100201-14:07:37|122=20100201-14:07:37|34=293|10=176|8=FIX.4.0|9=087|35=1|49=INET|56=WCHVR1|43=N|52=20100201-14:07:38|122=20100201-14:07:38|34=294|112=_TR_|10=234|8=FIX.4.0|9=078|35=0|49=INET|56=WCHVR1|43=N|52=20100201-14:08:28|122=20100201-14:08:28|34=295|10=180|8=FIX.4.0|9=087|35=1|49=INET|56=WCHVR1|43=N|52=20100201-14:08:29|122=20100201-14:08:29|34=296|112=_TR_|10=238|8=FIX.4.0|9=078|35=0|49=INET|56=WCHVR1|43=N|52=20100201-14:09:19|122=20100201-14:09:19|34=297|10=184|8=FIX.4.0|9=087|35=1|49=INET|56=WCHVR1|43=N|52=20100201-14:09:20|122=20100201-14:09:20|34=298|112=_TR_|10=224|8=FIX.4.0|9=078|35=0|49=INET|56=WCHVR1|43=N|52=20100201-14:10:10|122=20100201-14:10:10|34=299|10=152|8=FIX.4.0|9=087|35=1|49=INET|56=WCHVR1|43=N|52=20100201-14:10:11|122=20100201-14:10:11|34=300|112=_TR_|10=192|8=FIX.4.0|9=078|35=0|49=INET|56=WCHVR1|43=N|52=20100201-14:11:01|122=20100201-14:11:01|34=301|10=138|8=FIX.4.0|9=087|35=1|49=INET|56=WCHVR1|43=N|52=20100201-14:11:02|122=20100201-14:11:02|34=302|112=_TR_|10=196|8=FIX.4.0|9=078|35=0|49=INET|56=WCHVR1|43=N|52=20100201-14:11:52|122=20100201-14:11:52|34=303|10=152|8=FIX.4.0|9=087|35=1|49=INET|56=WCHVR1|43=N|52=20100201-14:11:53|122=20100201-14:11:53|34=304|112=_TR_|10=210|8=FIX.4.0|9=078|35=0|49=INET|56=WCHVR1|43=N|52=20100201-14:12:43|122=20100201-14:12:43|34=305|10=156|8=FIX.4.0|9=087|35=1|49=INET|56=WCHVR1|43=N|52=20100201-14:12:44|122=20100201-14:12:44|34=306|112=_TR_|10=214|8=FIX.4.0|9=078|35=0|49=INET|56=WCHVR1|43=N|52=20100201-14:13:34|122=20100201-14:13:34|34=307|10=160|8=FIX.4.0|9=078|35=0|49=INET|56=WCHVR1|43=N|52=20100201-14:14:24|122=20100201-14:14:24|34=308|10=161|8=FIX.4.0|9=087|35=1|49=INET|56=WCHVR1|43=N|52=20100201-14:14:26|122=20100201-14:14:26|34=309|112=_TR_|10=221|8=FIX.4.0|9=078|35=0|49=INET|56=WCHVR1|43=N|52=20100201-14:15:16|122=20100201-14:15:16|34=310|10=158|8=FIX.4.0|9=087|35=1|49=INET|56=WCHVR1|43=N|52=20100201-14:15:17|122=20100201-14:15:17|34=311|112=_TR_|10=216|8=FIX.4.0|9=078|35=0|49=INET|56=WCHVR1|43=N|52=20100201-14:16:07|122=20100201-14:16:07|34=312|10=162|8=FIX.4.0|9=087|35=1|49=INET|56=WCHVR1|43=N|52=20100201-14:16:08|122=20100201-14:16:08|34=313|112=_TR_|10=220|8=FIX.4.0|9=078|35=0|49=INET|56=WCHVR1|43=N|52=20100201-14:16:58|122=20100201-14:16:58|34=314|10=176|8=FIX.4.0|9=087|35=1|49=INET|56=WCHVR1|43=N|52=20100201-14:16:59|122=20100201-14:16:59|34=315|112=_TR_|10=234|8=FIX.4.0|9=078|35=0|49=INET|56=WCHVR1|43=N|52=20100201-14:17:49|122=20100201-14:17:49|34=316|10=180|8=FIX.4.0|9=087|35=1|49=INET|56=WCHVR1|43=N|52=20100201-14:17:50|122=20100201-14:17:50|34=317|112=_TR_|10=220|8=FIX.4.0|9=078|35=0|49=INET|56=WCHVR1|43=N|52=20100201-14:18:40|122=20100201-14:18:40|34=318|10=166|8=FIX.4.0|9=087|35=1|49=INET|56=WCHVR1|43=N|52=20100201-14:18:41|122=20100201-14:18:41|34=319|112=_TR_|10=224|8=FIX.4.0|9=078|35=0|49=INET|56=WCHVR1|43=N|52=20100201-14:19:31|122=20100201-14:19:31|34=320|10=161|8=FIX.4.0|9=087|35=1|49=INET|56=WCHVR1|43=N|52=20100201-14:19:32|122=20100201-14:19:32|34=321|112=_TR_|10=219|8=FIX.4.0|9=078|35=0|49=INET|56=WCHVR1|43=N|52=20100201-14:20:22|122=20100201-14:20:22|34=322|10=147|8=FIX.4.0|9=087|35=1|49=INET|56=WCHVR1|43=N|52=20100201-14:20:23|122=20100201-14:20:23|34=323|112=_TR_|10=205|8=FIX.4.0|9=078|35=0|49=INET|56=WCHVR1|43=N|52=20100201-14:21:13|122=20100201-14:21:13|34=324|10=151|8=FIX.4.0|9=087|35=1|49=INET|56=WCHVR1|43=N|52=20100201-14:21:14|122=20100201-14:21:14|34=325|112=_TR_|10=209|8=FIX.4.0|9=078|35=0|49=INET|56=WCHVR1|43=N|52=20100201-14:22:04|122=20100201-14:22:04|34=326|10=155|8=FIX.4.0|9=087|35=1|49=INET|56=WCHVR1|43=N|52=20100201-14:22:05|122=20100201-14:22:05|34=327|112=_TR_|10=213|8=FIX.4.0|9=078|35=0|49=INET|56=WCHVR1|43=N|52=20100201-14:22:55|122=20100201-14:22:55|34=328|10=169|8=FIX.4.0|9=087|35=1|49=INET|56=WCHVR1|43=N|52=20100201-14:22:56|122=20100201-14:22:56|34=329|112=_TR_|10=227|8=FIX.4.0|9=078|35=0|49=INET|56=WCHVR1|43=N|52=20100201-14:23:46|122=20100201-14:23:46|34=330|10=164|8=FIX.4.0|9=087|35=1|49=INET|56=WCHVR1|43=N|52=20100201-14:23:47|122=20100201-14:23:47|34=331|112=_TR_|10=222|8=FIX.4.0|9=078|35=0|49=INET|56=WCHVR1|43=N|52=20100201-14:24:37|122=20100201-14:24:37|34=332|10=168|8=FIX.4.0|9=087|35=1|49=INET|56=WCHVR1|43=N|52=20100201-14:24:38|122=20100201-14:24:38|34=333|112=_TR_|10=226|8=FIX.4.0|9=078|35=0|49=INET|56=WCHVR1|43=N|52=20100201-14:25:28|122=20100201-14:25:28|34=334|10=172|8=FIX.4.0|9=087|35=1|49=INET|56=WCHVR1|43=N|52=20100201-14:25:29|122=20100201-14:25:29|34=335|112=_TR_|10=230|8=FIX.4.0|9=078|35=0|49=INET|56=WCHVR1|43=N|52=20100201-14:26:19|122=20100201-14:26:19|34=336|10=176|8=FIX.4.0|9=087|35=1|49=INET|56=WCHVR1|43=N|52=20100201-14:26:20|122=20100201-14:26:20|34=337|112=_TR_|10=216|8=FIX.4.0|9=078|35=0|49=INET|56=WCHVR1|43=N|52=20100201-14:27:10|122=20100201-14:27:10|34=338|10=162|8=FIX.4.0|9=087|35=1|49=INET|56=WCHVR1|43=N|52=20100201-14:27:11|122=20100201-14:27:11|34=339|112=_TR_|10=220|8=FIX.4.0|9=078|35=0|49=INET|56=WCHVR1|43=N|52=20100201-14:28:01|122=20100201-14:28:01|34=340|10=157|8=FIX.4.0|9=087|35=1|49=INET|56=WCHVR1|43=N|52=20100201-14:28:02|122=20100201-14:28:02|34=341|112=_TR_|10=215|8=FIX.4.0|9=078|35=0|49=INET|56=WCHVR1|43=N|52=20100201-14:28:52|122=20100201-14:28:52|34=342|10=171|8=FIX.4.0|9=087|35=1|49=INET|56=WCHVR1|43=N|52=20100201-14:28:53|122=20100201-14:28:53|34=343|112=_TR_|10=229|8=FIX.4.0|9=078|35=0|49=INET|56=WCHVR1|43=N|52=20100201-14:29:43|122=20100201-14:29:43|34=344|10=175|8=FIX.4.0|9=087|35=1|49=INET|56=WCHVR1|43=N|52=20100201-14:29:44|122=20100201-14:29:44|34=345|112=_TR_|10=233|8=FIX.4.0|9=078|35=0|49=INET|56=WCHVR1|43=N|52=20100201-14:30:34|122=20100201-14:30:34|34=346|10=161|8=FIX.4.0|9=087|35=1|49=INET|56=WCHVR1|43=N|52=20100201-14:30:35|122=20100201-14:30:35|34=347|112=_TR_|10=219|8=FIX.4.0|9=078|35=0|49=INET|56=WCHVR1|43=N|52=20100201-14:31:25|122=20100201-14:31:25|34=348|10=165|8=FIX.4.0|9=087|35=1|49=INET|56=WCHVR1|43=N|52=20100201-14:31:27|122=20100201-14:31:27|34=349|112=_TR_|10=225|8=FIX.4.0|9=078|35=0|49=INET|56=WCHVR1|43=N|52=20100201-14:32:17|122=20100201-14:32:17|34=350|10=162|8=FIX.4.0|9=078|35=0|49=INET|56=WCHVR1|43=N|52=20100201-14:33:07|122=20100201-14:33:07|34=351|10=163|8=FIX.4.0|9=087|35=1|49=INET|56=WCHVR1|43=N|52=20100201-14:33:09|122=20100201-14:33:09|34=352|112=_TR_|10=223|8=FIX.4.0|9=078|35=0|49=INET|56=WCHVR1|43=N|52=20100201-14:33:59|122=20100201-14:33:59|34=353|10=179|8=FIX.4.0|9=078|35=0|49=INET|56=WCHVR1|43=N|52=20100201-14:34:49|122=20100201-14:34:49|34=354|10=180|8=FIX.4.0|9=087|35=1|49=INET|56=WCHVR1|43=N|52=20100201-14:34:51|122=20100201-14:34:51|34=355|112=_TR_|10=222|8=FIX.4.0|9=078|35=0|49=INET|56=WCHVR1|43=N|52=20100201-14:35:41|122=20100201-14:35:41|34=356|10=168|8=FIX.4.0|9=087|35=1|49=INET|56=WCHVR1|43=N|52=20100201-14:35:42|122=20100201-14:35:42|34=357|112=_TR_|10=226|8=FIX.4.0|9=078|35=0|49=INET|56=WCHVR1|43=N|52=20100201-14:36:32|122=20100201-14:36:32|34=358|10=172|8=FIX.4.0|9=078|35=0|49=INET|56=WCHVR1|43=N|52=20100201-14:37:22|122=20100201-14:37:22|34=359|10=173|8=FIX.4.0|9=087|35=1|49=INET|56=WCHVR1|43=N|52=20100201-14:37:24|122=20100201-14:37:24|34=360|112=_TR_|10=224|8=FIX.4.0|9=078|35=0|49=INET|56=WCHVR1|43=N|52=20100201-14:38:14|122=20100201-14:38:14|34=361|10=170|8=FIX.4.0|9=087|35=1|49=INET|56=WCHVR1|43=N|52=20100201-14:38:15|122=20100201-14:38:15|34=362|112=_TR_|10=228|8=FIX.4.0|9=078|35=0|49=INET|56=WCHVR1|43=N|52=20100201-14:39:05|122=20100201-14:39:05|34=363|10=174|8=FIX.4.0|9=087|35=1|49=INET|56=WCHVR1|43=N|52=20100201-14:39:06|122=20100201-14:39:06|34=364|112=_TR_|10=232|8=FIX.4.0|9=078|35=0|49=INET|56=WCHVR1|43=N|52=20100201-14:39:56|122=20100201-14:39:56|34=365|10=188|8=FIX.4.0|9=087|35=1|49=INET|56=WCHVR1|43=N|52=20100201-14:39:57|122=20100201-14:39:57|34=366|112=_TR_|10=246|8=FIX.4.0|9=078|35=0|49=INET|56=WCHVR1|43=N|52=20100201-14:40:47|122=20100201-14:40:47|34=367|10=174|8=FIX.4.0|9=078|35=0|49=INET|56=WCHVR1|43=N|52=20100201-14:41:37|122=20100201-14:41:37|34=368|10=175|8=FIX.4.0|9=087|35=1|49=INET|56=WCHVR1|43=N|52=20100201-14:41:39|122=20100201-14:41:39|34=369|112=_TR_|10=235|8=FIX.4.0|9=078|35=0|49=INET|56=WCHVR1|43=N|52=20100201-14:42:29|122=20100201-14:42:29|34=370|10=172|8=FIX.4.0|9=078|35=0|49=INET|56=WCHVR1|43=N|52=20100201-14:43:19|122=20100201-14:43:19|34=371|10=173|8=FIX.4.0|9=087|35=1|49=INET|56=WCHVR1|43=N|52=20100201-14:43:21|122=20100201-14:43:21|34=372|112=_TR_|10=215|8=FIX.4.0|9=078|35=0|49=INET|56=WCHVR1|43=N|52=20100201-14:44:11|122=20100201-14:44:11|34=373|10=161|8=FIX.4.0|9=087|35=1|49=INET|56=WCHVR1|43=N|52=20100201-14:44:12|122=20100201-14:44:12|34=374|112=_TR_|10=219|8=FIX.4.0|9=078|35=0|49=INET|56=WCHVR1|43=N|52=20100201-14:45:02|122=20100201-14:45:02|34=375|10=165|8=FIX.4.0|9=087|35=1|49=INET|56=WCHVR1|43=N|52=20100201-14:45:03|122=20100201-14:45:03|34=376|112=_TR_|10=223|8=FIX.4.0|9=078|35=0|49=INET|56=WCHVR1|43=N|52=20100201-14:45:53|122=20100201-14:45:53|34=377|10=179|8=FIX.4.0|9=087|35=1|49=INET|56=WCHVR1|43=N|52=20100201-14:45:54|122=20100201-14:45:54|34=378|112=_TR_|10=237|8=FIX.4.0|9=078|35=0|49=INET|56=WCHVR1|43=N|52=20100201-14:46:44|122=20100201-14:46:44|34=379|10=183|8=FIX.4.0|9=087|35=1|49=INET|56=WCHVR1|43=N|52=20100201-14:46:45|122=20100201-14:46:45|34=380|112=_TR_|10=232|8=FIX.4.0|9=078|35=0|49=INET|56=WCHVR1|43=N|52=20100201-14:47:35|122=20100201-14:47:35|34=381|10=178|8=FIX.4.0|9=087|35=1|49=INET|56=WCHVR1|43=N|52=20100201-14:47:36|122=20100201-14:47:36|34=382|112=_TR_|10=236|8=FIX.4.0|9=078|35=0|49=INET|56=WCHVR1|43=N|52=20100201-14:48:26|122=20100201-14:48:26|34=383|10=182|8=FIX.4.0|9=087|35=1|49=INET|56=WCHVR1|43=N|52=20100201-14:48:27|122=20100201-14:48:27|34=384|112=_TR_|10=240|8=FIX.4.0|9=078|35=0|49=INET|56=WCHVR1|43=N|52=20100201-14:49:17|122=20100201-14:49:17|34=385|10=186|8=FIX.4.0|9=078|35=0|49=INET|56=WCHVR1|43=N|52=20100201-14:50:07|122=20100201-14:50:07|34=386|10=169|8=FIX.4.0|9=078|35=0|49=INET|56=WCHVR1|43=N|52=20100201-14:50:57|122=20100201-14:50:57|34=387|10=180|8=FIX.4.0|9=087|35=1|49=INET|56=WCHVR1|43=N|52=20100201-14:51:00|122=20100201-14:51:00|34=388|112=_TR_|10=214|8=FIX.4.0|9=078|35=0|49=INET|56=WCHVR1|43=N|52=20100201-14:51:50|122=20100201-14:51:50|34=389|10=170|8=FIX.4.0|9=087|35=1|49=INET|56=WCHVR1|43=N|52=20100201-14:51:51|122=20100201-14:51:51|34=390|112=_TR_|10=219|8=FIX.4.0|9=078|35=0|49=INET|56=WCHVR1|43=N|52=20100201-14:52:41|122=20100201-14:52:41|34=391|10=165|8=FIX.4.0|9=087|35=1|49=INET|56=WCHVR1|43=N|52=20100201-14:52:42|122=20100201-14:52:42|34=392|112=_TR_|10=223|8=FIX.4.0|9=078|35=0|49=INET|56=WCHVR1|43=N|52=20100201-14:53:32|122=20100201-14:53:32|34=393|10=169|8=FIX.4.0|9=087|35=1|49=INET|56=WCHVR1|43=N|52=20100201-14:53:33|122=20100201-14:53:33|34=394|112=_TR_|10=227|8=FIX.4.0|9=078|35=0|49=INET|56=WCHVR1|43=N|52=20100201-14:54:23|122=20100201-14:54:23|34=395|10=173|8=FIX.4.0|9=087|35=1|49=INET|56=WCHVR1|43=N|52=20100201-14:54:24|122=20100201-14:54:24|34=396|112=_TR_|10=231|8=FIX.4.0|9=078|35=0|49=INET|56=WCHVR1|43=N|52=20100201-14:55:14|122=20100201-14:55:14|34=397|10=177|8=FIX.4.0|9=087|35=1|49=INET|56=WCHVR1|43=N|52=20100201-14:55:15|122=20100201-14:55:15|34=398|112=_TR_|10=235|8=FIX.4.0|9=078|35=0|49=INET|56=WCHVR1|43=N|52=20100201-14:56:05|122=20100201-14:56:05|34=399|10=181|8=FIX.4.0|9=087|35=1|49=INET|56=WCHVR1|43=N|52=20100201-14:56:06|122=20100201-14:56:06|34=400|112=_TR_|10=221|8=FIX.4.0|9=078|35=0|49=INET|56=WCHVR1|43=N|52=20100201-14:56:56|122=20100201-14:56:56|34=401|10=177|8=FIX.4.0|9=087|35=1|49=INET|56=WCHVR1|43=N|52=20100201-14:56:57|122=20100201-14:56:57|34=402|112=_TR_|10=235|8=FIX.4.0|9=078|35=0|49=INET|56=WCHVR1|43=N|52=20100201-14:57:47|122=20100201-14:57:47|34=403|10=181|8=FIX.4.0|9=078|35=0|49=INET|56=WCHVR1|43=N|52=20100201-14:58:37|122=20100201-14:58:37|34=404|10=182|8=FIX.4.0|9=087|35=1|49=INET|56=WCHVR1|43=N|52=20100201-14:58:39|122=20100201-14:58:39|34=405|112=_TR_|10=242|8=FIX.4.0|9=078|35=0|49=INET|56=WCHVR1|43=N|52=20100201-14:59:29|122=20100201-14:59:29|34=406|10=188|8=FIX.4.0|9=087|35=1|49=INET|56=WCHVR1|43=N|52=20100201-14:59:30|122=20100201-14:59:30|34=407|112=_TR_|10=228|8=FIX.4.0|9=078|35=0|49=INET|56=WCHVR1|43=N|52=20100201-15:00:20|122=20100201-15:00:20|34=408|10=146|8=FIX.4.0|9=087|35=1|49=INET|56=WCHVR1|43=N|52=20100201-15:00:21|122=20100201-15:00:21|34=409|112=_TR_|10=204|8=FIX.4.0|9=078|35=0|49=INET|56=WCHVR1|43=N|52=20100201-15:01:11|122=20100201-15:01:11|34=410|10=141|8=FIX.4.0|9=087|35=1|49=INET|56=WCHVR1|43=N|52=20100201-15:01:12|122=20100201-15:01:12|34=411|112=_TR_|10=199|8=FIX.4.0|9=078|35=0|49=INET|56=WCHVR1|43=N|52=20100201-15:02:02|122=20100201-15:02:02|34=412|10=145|8=FIX.4.0|9=087|35=1|49=INET|56=WCHVR1|43=N|52=20100201-15:02:03|122=20100201-15:02:03|34=413|112=_TR_|10=203|8=FIX.4.0|9=078|35=0|49=INET|56=WCHVR1|43=N|52=20100201-15:02:53|122=20100201-15:02:53|34=414|10=159|8=FIX.4.0|9=087|35=1|49=INET|56=WCHVR1|43=N|52=20100201-15:02:54|122=20100201-15:02:54|34=415|112=_TR_|10=217|8=FIX.4.0|9=078|35=0|49=INET|56=WCHVR1|43=N|52=20100201-15:03:44|122=20100201-15:03:44|34=416|10=163|8=FIX.4.0|9=087|35=1|49=INET|56=WCHVR1|43=N|52=20100201-15:03:45|122=20100201-15:03:45|34=417|112=_TR_|10=221|8=FIX.4.0|9=078|35=0|49=INET|56=WCHVR1|43=N|52=20100201-15:04:35|122=20100201-15:04:35|34=418|10=167|8=FIX.4.0|9=087|35=1|49=INET|56=WCHVR1|43=N|52=20100201-15:04:36|122=20100201-15:04:36|34=419|112=_TR_|10=225|8=FIX.4.0|9=078|35=0|49=INET|56=WCHVR1|43=N|52=20100201-15:05:26|122=20100201-15:05:26|34=420|10=162|8=FIX.4.0|9=087|35=1|49=INET|56=WCHVR1|43=N|52=20100201-15:05:27|122=20100201-15:05:27|34=421|112=_TR_|10=220|8=FIX.4.0|9=078|35=0|49=INET|56=WCHVR1|43=N|52=20100201-15:06:17|122=20100201-15:06:17|34=422|10=166|8=FIX.4.0|9=087|35=1|49=INET|56=WCHVR1|43=N|52=20100201-15:06:18|122=20100201-15:06:18|34=423|112=_TR_|10=224|8=FIX.4.0|9=078|35=0|49=INET|56=WCHVR1|43=N|52=20100201-15:07:08|122=20100201-15:07:08|34=424|10=170|8=FIX.4.0|9=087|35=1|49=INET|56=WCHVR1|43=N|52=20100201-15:07:09|122=20100201-15:07:09|34=425|112=_TR_|10=228|8=FIX.4.0|9=078|35=0|49=INET|56=WCHVR1|43=N|52=20100201-15:07:59|122=20100201-15:07:59|34=426|10=184|8=FIX.4.0|9=087|35=1|49=INET|56=WCHVR1|43=N|52=20100201-15:08:00|122=20100201-15:08:00|34=427|112=_TR_|10=214|8=FIX.4.0|9=078|35=0|49=INET|56=WCHVR1|43=N|52=20100201-15:08:50|122=20100201-15:08:50|34=428|10=170|8=FIX.4.0|9=087|35=1|49=INET|56=WCHVR1|43=N|52=20100201-15:08:51|122=20100201-15:08:51|34=429|112=_TR_|10=228|8=FIX.4.0|9=078|35=0|49=INET|56=WCHVR1|43=N|52=20100201-15:09:41|122=20100201-15:09:41|34=430|10=165|8=FIX.4.0|9=087|35=1|49=INET|56=WCHVR1|43=N|52=20100201-15:09:42|122=20100201-15:09:42|34=431|112=_TR_|10=223|8=FIX.4.0|9=078|35=0|49=INET|56=WCHVR1|43=N|52=20100201-15:10:32|122=20100201-15:10:32|34=432|10=151|8=FIX.4.0|9=087|35=1|49=INET|56=WCHVR1|43=N|52=20100201-15:10:33|122=20100201-15:10:33|34=433|112=_TR_|10=209|8=FIX.4.0|9=078|35=0|49=INET|56=WCHVR1|43=N|52=20100201-15:11:23|122=20100201-15:11:23|34=434|10=155|8=FIX.4.0|9=087|35=1|49=INET|56=WCHVR1|43=N|52=20100201-15:11:24|122=20100201-15:11:24|34=435|112=_TR_|10=213|8=FIX.4.0|9=078|35=0|49=INET|56=WCHVR1|43=N|52=20100201-15:12:14|122=20100201-15:12:14|34=436|10=159|8=FIX.4.0|9=078|35=0|49=INET|56=WCHVR1|43=N|52=20100201-15:13:04|122=20100201-15:13:04|34=437|10=160|8=FIX.4.0|9=087|35=1|49=INET|56=WCHVR1|43=N|52=20100201-15:13:06|122=20100201-15:13:06|34=438|112=_TR_|10=220|8=FIX.4.0|9=078|35=0|49=INET|56=WCHVR1|43=N|52=20100201-15:13:56|122=20100201-15:13:56|34=439|10=176|8=FIX.4.0|9=087|35=1|49=INET|56=WCHVR1|43=N|52=20100201-15:13:57|122=20100201-15:13:57|34=440|112=_TR_|10=225|8=FIX.4.0|9=078|35=0|49=INET|56=WCHVR1|43=N|52=20100201-15:14:47|122=20100201-15:14:47|34=441|10=171|8=FIX.4.0|9=087|35=1|49=INET|56=WCHVR1|43=N|52=20100201-15:14:48|122=20100201-15:14:48|34=442|112=_TR_|10=229|8=FIX.4.0|9=078|35=0|49=INET|56=WCHVR1|43=N|52=20100201-15:15:38|122=20100201-15:15:38|34=443|10=175|8=FIX.4.0|9=087|35=1|49=INET|56=WCHVR1|43=N|52=20100201-15:15:39|122=20100201-15:15:39|34=444|112=_TR_|10=233|8=FIX.4.0|9=078|35=0|49=INET|56=WCHVR1|43=N|52=20100201-15:16:29|122=20100201-15:16:29|34=445|10=179|8=FIX.4.0|9=087|35=1|49=INET|56=WCHVR1|43=N|52=20100201-15:16:30|122=20100201-15:16:30|34=446|112=_TR_|10=219|8=FIX.4.0|9=078|35=0|49=INET|56=WCHVR1|43=N|52=20100201-15:17:20|122=20100201-15:17:20|34=447|10=165|8=FIX.4.0|9=078|35=0|49=INET|56=WCHVR1|43=N|52=20100201-15:18:10|122=20100201-15:18:10|34=448|10=166|8=FIX.4.0|9=087|35=1|49=INET|56=WCHVR1|43=N|52=20100201-15:18:12|122=20100201-15:18:12|34=449|112=_TR_|10=226|8=FIX.4.0|9=078|35=0|49=INET|56=WCHVR1|43=N|52=20100201-15:19:02|122=20100201-15:19:02|34=450|10=163|8=FIX.4.0|9=087|35=1|49=INET|56=WCHVR1|43=N|52=20100201-15:19:03|122=20100201-15:19:03|34=451|112=_TR_|10=221|8=FIX.4.0|9=078|35=0|49=INET|56=WCHVR1|43=N|52=20100201-15:19:53|122=20100201-15:19:53|34=452|10=177|8=FIX.4.0|9=087|35=1|49=INET|56=WCHVR1|43=N|52=20100201-15:19:54|122=20100201-15:19:54|34=453|112=_TR_|10=235|8=FIX.4.0|9=078|35=0|49=INET|56=WCHVR1|43=N|52=20100201-15:20:44|122=20100201-15:20:44|34=454|10=163|8=FIX.4.0|9=087|35=1|49=INET|56=WCHVR1|43=N|52=20100201-15:20:45|122=20100201-15:20:45|34=455|112=_TR_|10=221|8=FIX.4.0|9=078|35=0|49=INET|56=WCHVR1|43=N|52=20100201-15:21:35|122=20100201-15:21:35|34=456|10=167|8=FIX.4.0|9=078|35=0|49=INET|56=WCHVR1|43=N|52=20100201-15:22:25|122=20100201-15:22:25|34=457|10=168|8=FIX.4.0|9=078|35=0|49=INET|56=WCHVR1|43=N|52=20100201-15:23:15|122=20100201-15:23:15|34=458|10=169|8=FIX.4.0|9=087|35=1|49=INET|56=WCHVR1|43=N|52=20100201-15:23:18|122=20100201-15:23:18|34=459|112=_TR_|10=231|8=FIX.4.0|9=078|35=0|49=INET|56=WCHVR1|43=N|52=20100201-15:24:08|122=20100201-15:24:08|34=460|10=168|8=FIX.4.0|9=087|35=1|49=INET|56=WCHVR1|43=N|52=20100201-15:24:09|122=20100201-15:24:09|34=461|112=_TR_|10=226|8=FIX.4.0|9=078|35=0|49=INET|56=WCHVR1|43=N|52=20100201-15:24:59|122=20100201-15:24:59|34=462|10=182|8=FIX.4.0|9=087|35=1|49=INET|56=WCHVR1|43=N|52=20100201-15:25:00|122=20100201-15:25:00|34=463|112=_TR_|10=212|8=FIX.4.0|9=078|35=0|49=INET|56=WCHVR1|43=N|52=20100201-15:25:50|122=20100201-15:25:50|34=464|10=168|8=FIX.4.0|9=087|35=1|49=INET|56=WCHVR1|43=N|52=20100201-15:25:51|122=20100201-15:25:51|34=465|112=_TR_|10=226|8=FIX.4.0|9=078|35=0|49=INET|56=WCHVR1|43=N|52=20100201-15:26:41|122=20100201-15:26:41|34=466|10=172|8=FIX.4.0|9=087|35=1|49=INET|56=WCHVR1|43=N|52=20100201-15:26:42|122=20100201-15:26:42|34=467|112=_TR_|10=230|8=FIX.4.0|9=078|35=0|49=INET|56=WCHVR1|43=N|52=20100201-15:27:32|122=20100201-15:27:32|34=468|10=176|8=FIX.4.0|9=087|35=1|49=INET|56=WCHVR1|43=N|52=20100201-15:27:33|122=20100201-15:27:33|34=469|112=_TR_|10=234|8=FIX.4.0|9=078|35=0|49=INET|56=WCHVR1|43=N|52=20100201-15:28:23|122=20100201-15:28:23|34=470|10=171|8=FIX.4.0|9=078|35=0|49=INET|56=WCHVR1|43=N|52=20100201-15:29:13|122=20100201-15:29:13|34=471|10=172|8=FIX.4.0|9=087|35=1|49=INET|56=WCHVR1|43=N|52=20100201-15:29:15|122=20100201-15:29:15|34=472|112=_TR_|10=232|8=FIX.4.0|9=078|35=0|49=INET|56=WCHVR1|43=N|52=20100201-15:30:05|122=20100201-15:30:05|34=473|10=160|8=FIX.4.0|9=087|35=1|49=INET|56=WCHVR1|43=N|52=20100201-15:30:06|122=20100201-15:30:06|34=474|112=_TR_|10=218|8=FIX.4.0|9=078|35=0|49=INET|56=WCHVR1|43=N|52=20100201-15:30:56|122=20100201-15:30:56|34=475|10=174|8=FIX.4.0|9=087|35=1|49=INET|56=WCHVR1|43=N|52=20100201-15:30:57|122=20100201-15:30:57|34=476|112=_TR_|10=232|8=FIX.4.0|9=078|35=0|49=INET|56=WCHVR1|43=N|52=20100201-15:31:47|122=20100201-15:31:47|34=477|10=178|8=FIX.4.0|9=087|35=1|49=INET|56=WCHVR1|43=N|52=20100201-15:31:48|122=20100201-15:31:48|34=478|112=_TR_|10=236|8=FIX.4.0|9=078|35=0|49=INET|56=WCHVR1|43=N|52=20100201-15:32:38|122=20100201-15:32:38|34=479|10=182|8=FIX.4.0|9=087|35=1|49=INET|56=WCHVR1|43=N|52=20100201-15:32:39|122=20100201-15:32:39|34=480|112=_TR_|10=231|8=FIX.4.0|9=078|35=0|49=INET|56=WCHVR1|43=N|52=20100201-15:33:29|122=20100201-15:33:29|34=481|10=177|8=FIX.4.0|9=087|35=1|49=INET|56=WCHVR1|43=N|52=20100201-15:33:30|122=20100201-15:33:30|34=482|112=_TR_|10=217|8=FIX.4.0|9=078|35=0|49=INET|56=WCHVR1|43=N|52=20100201-15:34:20|122=20100201-15:34:20|34=483|10=163|8=FIX.4.0|9=087|35=1|49=INET|56=WCHVR1|43=N|52=20100201-15:34:21|122=20100201-15:34:21|34=484|112=_TR_|10=221|8=FIX.4.0|9=078|35=0|49=INET|56=WCHVR1|43=N|52=20100201-15:35:11|122=20100201-15:35:11|34=485|10=167|8=FIX.4.0|9=087|35=1|49=INET|56=WCHVR1|43=N|52=20100201-15:35:12|122=20100201-15:35:12|34=486|112=_TR_|10=225|8=FIX.4.0|9=078|35=0|49=INET|56=WCHVR1|43=N|52=20100201-15:36:02|122=20100201-15:36:02|34=487|10=171|8=FIX.4.0|9=078|35=0|49=INET|56=WCHVR1|43=N|52=20100201-15:36:52|122=20100201-15:36:52|34=488|10=182|8=FIX.4.0|9=087|35=1|49=INET|56=WCHVR1|43=N|52=20100201-15:36:54|122=20100201-15:36:54|34=489|112=_TR_|10=242|8=FIX.4.0|9=078|35=0|49=INET|56=WCHVR1|43=N|52=20100201-15:37:44|122=20100201-15:37:44|34=490|10=179|8=FIX.4.0|9=087|35=1|49=INET|56=WCHVR1|43=N|52=20100201-15:37:45|122=20100201-15:37:45|34=491|112=_TR_|10=237|8=FIX.4.0|9=078|35=0|49=INET|56=WCHVR1|43=N|52=20100201-15:38:35|122=20100201-15:38:35|34=492|10=183|8=FIX.4.0|9=087|35=1|49=INET|56=WCHVR1|43=N|52=20100201-15:38:36|122=20100201-15:38:36|34=493|112=_TR_|10=241|8=FIX.4.0|9=078|35=0|49=INET|56=WCHVR1|43=N|52=20100201-15:39:26|122=20100201-15:39:26|34=494|10=187|8=FIX.4.0|9=087|35=1|49=INET|56=WCHVR1|43=N|52=20100201-15:39:27|122=20100201-15:39:27|34=495|112=_TR_|10=245|8=FIX.4.0|9=078|35=0|49=INET|56=WCHVR1|43=N|52=20100201-15:40:17|122=20100201-15:40:17|34=496|10=173|8=FIX.4.0|9=087|35=1|49=INET|56=WCHVR1|43=N|52=20100201-15:40:18|122=20100201-15:40:18|34=497|112=_TR_|10=231|8=FIX.4.0|9=078|35=0|49=INET|56=WCHVR1|43=N|52=20100201-15:41:08|122=20100201-15:41:08|34=498|10=177|8=FIX.4.0|9=087|35=1|49=INET|56=WCHVR1|43=N|52=20100201-15:41:09|122=20100201-15:41:09|34=499|112=_TR_|10=235|8=FIX.4.0|9=078|35=0|49=INET|56=WCHVR1|43=N|52=20100201-15:41:59|122=20100201-15:41:59|34=500|10=173|8=FIX.4.0|9=087|35=1|49=INET|56=WCHVR1|43=N|52=20100201-15:42:00|122=20100201-15:42:00|34=501|112=_TR_|10=203|8=FIX.4.0|9=078|35=0|49=INET|56=WCHVR1|43=N|52=20100201-15:42:50|122=20100201-15:42:50|34=502|10=159|8=FIX.4.0|9=078|35=0|49=INET|56=WCHVR1|43=N|52=20100201-15:43:40|122=20100201-15:43:40|34=503|10=160|8=FIX.4.0|9=087|35=1|49=INET|56=WCHVR1|43=N|52=20100201-15:43:42|122=20100201-15:43:42|34=504|112=_TR_|10=220|8=FIX.4.0|9=078|35=0|49=INET|56=WCHVR1|43=N|52=20100201-15:44:32|122=20100201-15:44:32|34=505|10=166|8=FIX.4.0|9=087|35=1|49=INET|56=WCHVR1|43=N|52=20100201-15:44:33|122=20100201-15:44:33|34=506|112=_TR_|10=224|8=FIX.4.0|9=078|35=0|49=INET|56=WCHVR1|43=N|52=20100201-15:45:23|122=20100201-15:45:23|34=507|10=170|8=FIX.4.0|9=087|35=1|49=INET|56=WCHVR1|43=N|52=20100201-15:45:24|122=20100201-15:45:24|34=508|112=_TR_|10=228|8=FIX.4.0|9=078|35=0|49=INET|56=WCHVR1|43=N|52=20100201-15:46:14|122=20100201-15:46:14|34=509|10=174|8=FIX.4.0|9=087|35=1|49=INET|56=WCHVR1|43=N|52=20100201-15:46:15|122=20100201-15:46:15|34=510|112=_TR_|10=223|8=FIX.4.0|9=078|35=0|49=INET|56=WCHVR1|43=N|52=20100201-15:47:05|122=20100201-15:47:05|34=511|10=169|8=FIX.4.0|9=087|35=1|49=INET|56=WCHVR1|43=N|52=20100201-15:47:06|122=20100201-15:47:06|34=512|112=_TR_|10=227|8=FIX.4.0|9=078|35=0|49=INET|56=WCHVR1|43=N|52=20100201-15:47:56|122=20100201-15:47:56|34=513|10=183|8=FIX.4.0|9=087|35=1|49=INET|56=WCHVR1|43=N|52=20100201-15:47:57|122=20100201-15:47:57|34=514|112=_TR_|10=241|8=FIX.4.0|9=078|35=0|49=INET|56=WCHVR1|43=N|52=20100201-15:48:47|122=20100201-15:48:47|34=515|10=187|8=FIX.4.0|9=078|35=0|49=INET|56=WCHVR1|43=N|52=20100201-15:49:37|122=20100201-15:49:37|34=516|10=188|8=FIX.4.0|9=087|35=1|49=INET|56=WCHVR1|43=N|52=20100201-15:49:39|122=20100201-15:49:39|34=517|112=_TR_|10=248|8=FIX.4.0|9=078|35=0|49=INET|56=WCHVR1|43=N|52=20100201-15:50:29|122=20100201-15:50:29|34=518|10=176|8=FIX.4.0|9=087|35=1|49=INET|56=WCHVR1|43=N|52=20100201-15:50:30|122=20100201-15:50:30|34=519|112=_TR_|10=216|8=FIX.4.0|9=078|35=0|49=INET|56=WCHVR1|43=N|52=20100201-15:51:20|122=20100201-15:51:20|34=520|10=153|8=FIX.4.0|9=087|35=1|49=INET|56=WCHVR1|43=N|52=20100201-15:51:21|122=20100201-15:51:21|34=521|112=_TR_|10=211|8=FIX.4.0|9=078|35=0|49=INET|56=WCHVR1|43=N|52=20100201-15:52:11|122=20100201-15:52:11|34=522|10=157|8=FIX.4.0|9=087|35=1|49=INET|56=WCHVR1|43=N|52=20100201-15:52:12|122=20100201-15:52:12|34=523|112=_TR_|10=215|8=FIX.4.0|9=078|35=0|49=INET|56=WCHVR1|43=N|52=20100201-15:53:02|122=20100201-15:53:02|34=524|10=161|8=FIX.4.0|9=087|35=1|49=INET|56=WCHVR1|43=N|52=20100201-15:53:03|122=20100201-15:53:03|34=525|112=_TR_|10=219|8=FIX.4.0|9=078|35=0|49=INET|56=WCHVR1|43=N|52=20100201-15:53:53|122=20100201-15:53:53|34=526|10=175|8=FIX.4.0|9=078|35=0|49=INET|56=WCHVR1|43=N|52=20100201-15:54:43|122=20100201-15:54:43|34=527|10=176|8=FIX.4.0|9=087|35=1|49=INET|56=WCHVR1|43=N|52=20100201-15:54:45|122=20100201-15:54:45|34=528|112=_TR_|10=236|8=FIX.4.0|9=078|35=0|49=INET|56=WCHVR1|43=N|52=20100201-15:55:35|122=20100201-15:55:35|34=529|10=182|8=FIX.4.0|9=087|35=1|49=INET|56=WCHVR1|43=N|52=20100201-15:55:36|122=20100201-15:55:36|34=530|112=_TR_|10=231|8=FIX.4.0|9=078|35=0|49=INET|56=WCHVR1|43=N|52=20100201-15:56:26|122=20100201-15:56:26|34=531|10=177|8=FIX.4.0|9=087|35=1|49=INET|56=WCHVR1|43=N|52=20100201-15:56:27|122=20100201-15:56:27|34=532|112=_TR_|10=235|8=FIX.4.0|9=078|35=0|49=INET|56=WCHVR1|43=N|52=20100201-15:57:17|122=20100201-15:57:17|34=533|10=181|8=FIX.4.0|9=087|35=1|49=INET|56=WCHVR1|43=N|52=20100201-15:57:18|122=20100201-15:57:18|34=534|112=_TR_|10=239|8=FIX.4.0|9=078|35=0|49=INET|56=WCHVR1|43=N|52=20100201-15:58:08|122=20100201-15:58:08|34=535|10=185|8=FIX.4.0|9=087|35=1|49=INET|56=WCHVR1|43=N|52=20100201-15:58:09|122=20100201-15:58:09|34=536|112=_TR_|10=243|8=FIX.4.0|9=078|35=0|49=INET|56=WCHVR1|43=N|52=20100201-15:58:59|122=20100201-15:58:59|34=537|10=199|8=FIX.4.0|9=087|35=1|49=INET|56=WCHVR1|43=N|52=20100201-15:59:00|122=20100201-15:59:00|34=538|112=_TR_|10=229|8=FIX.4.0|9=078|35=0|49=INET|56=WCHVR1|43=N|52=20100201-15:59:50|122=20100201-15:59:50|34=539|10=185|8=FIX.4.0|9=087|35=1|49=INET|56=WCHVR1|43=N|52=20100201-15:59:51|122=20100201-15:59:51|34=540|112=_TR_|10=234|8=FIX.4.0|9=078|35=0|49=INET|56=WCHVR1|43=N|52=20100201-16:00:41|122=20100201-16:00:41|34=541|10=152|8=FIX.4.0|9=087|35=1|49=INET|56=WCHVR1|43=N|52=20100201-16:00:42|122=20100201-16:00:42|34=542|112=_TR_|10=210|8=FIX.4.0|9=078|35=0|49=INET|56=WCHVR1|43=N|52=20100201-16:01:32|122=20100201-16:01:32|34=543|10=156|8=FIX.4.0|9=078|35=0|49=INET|56=WCHVR1|43=N|52=20100201-16:02:22|122=20100201-16:02:22|34=544|10=157|8=FIX.4.0|9=087|35=1|49=INET|56=WCHVR1|43=N|52=20100201-16:02:24|122=20100201-16:02:24|34=545|112=_TR_|10=217|8=FIX.4.0|9=078|35=0|49=INET|56=WCHVR1|43=N|52=20100201-16:03:14|122=20100201-16:03:14|34=546|10=163|8=FIX.4.0|9=087|35=1|49=INET|56=WCHVR1|43=N|52=20100201-16:03:15|122=20100201-16:03:15|34=547|112=_TR_|10=221|8=FIX.4.0|9=078|35=0|49=INET|56=WCHVR1|43=N|52=20100201-16:04:05|122=20100201-16:04:05|34=548|10=167|8=FIX.4.0|9=087|35=1|49=INET|56=WCHVR1|43=N|52=20100201-16:04:06|122=20100201-16:04:06|34=549|112=_TR_|10=225|8=FIX.4.0|9=078|35=0|49=INET|56=WCHVR1|43=N|52=20100201-16:04:56|122=20100201-16:04:56|34=550|10=172|8=FIX.4.0|9=087|35=1|49=INET|56=WCHVR1|43=N|52=20100201-16:04:57|122=20100201-16:04:57|34=551|112=_TR_|10=230|8=FIX.4.0|9=078|35=0|49=INET|56=WCHVR1|43=N|52=20100201-16:05:47|122=20100201-16:05:47|34=552|10=176|8=FIX.4.0|9=087|35=1|49=INET|56=WCHVR1|43=N|52=20100201-16:05:48|122=20100201-16:05:48|34=553|112=_TR_|10=234|8=FIX.4.0|9=078|35=0|49=INET|56=WCHVR1|43=N|52=20100201-16:06:38|122=20100201-16:06:38|34=554|10=180|8=FIX.4.0|9=078|35=0|49=INET|56=WCHVR1|43=N|52=20100201-16:07:28|122=20100201-16:07:28|34=555|10=181|8=FIX.4.0|9=087|35=1|49=INET|56=WCHVR1|43=N|52=20100201-16:07:30|122=20100201-16:07:30|34=556|112=_TR_|10=223|8=FIX.4.0|9=078|35=0|49=INET|56=WCHVR1|43=N|52=20100201-16:08:20|122=20100201-16:08:20|34=557|10=169|8=FIX.4.0|9=087|35=1|49=INET|56=WCHVR1|43=N|52=20100201-16:08:21|122=20100201-16:08:21|34=558|112=_TR_|10=227|8=FIX.4.0|9=078|35=0|49=INET|56=WCHVR1|43=N|52=20100201-16:09:11|122=20100201-16:09:11|34=559|10=173|8=FIX.4.0|9=078|35=0|49=INET|56=WCHVR1|43=N|52=20100201-16:10:01|122=20100201-16:10:01|34=560|10=147|8=FIX.4.0|9=087|35=1|49=INET|56=WCHVR1|43=N|52=20100201-16:10:03|122=20100201-16:10:03|34=561|112=_TR_|10=207|8=FIX.4.0|9=078|35=0|49=INET|56=WCHVR1|43=N|52=20100201-16:10:53|122=20100201-16:10:53|34=562|10=163|8=FIX.4.0|9=087|35=1|49=INET|56=WCHVR1|43=N|52=20100201-16:10:54|122=20100201-16:10:54|34=563|112=_TR_|10=221|8=FIX.4.0|9=078|35=0|49=INET|56=WCHVR1|43=N|52=20100201-16:11:44|122=20100201-16:11:44|34=564|10=167|8=FIX.4.0|9=087|35=1|49=INET|56=WCHVR1|43=N|52=20100201-16:11:45|122=20100201-16:11:45|34=565|112=_TR_|10=225|8=FIX.4.0|9=078|35=0|49=INET|56=WCHVR1|43=N|52=20100201-16:12:35|122=20100201-16:12:35|34=566|10=171|8=FIX.4.0|9=087|35=1|49=INET|56=WCHVR1|43=N|52=20100201-16:12:36|122=20100201-16:12:36|34=567|112=_TR_|10=229|8=FIX.4.0|9=078|35=0|49=INET|56=WCHVR1|43=N|52=20100201-16:13:26|122=20100201-16:13:26|34=568|10=175|8=FIX.4.0|9=078|35=0|49=INET|56=WCHVR1|43=N|52=20100201-16:14:16|122=20100201-16:14:16|34=569|10=176|8=FIX.4.0|9=087|35=1|49=INET|56=WCHVR1|43=N|52=20100201-16:14:18|122=20100201-16:14:18|34=570|112=_TR_|10=227|8=FIX.4.0|9=078|35=0|49=INET|56=WCHVR1|43=N|52=20100201-16:15:08|122=20100201-16:15:08|34=571|10=173|8=FIX.4.0|9=087|35=1|49=INET|56=WCHVR1|43=N|52=20100201-16:15:09|122=20100201-16:15:09|34=572|112=_TR_|10=231|8=FIX.4.0|9=078|35=0|49=INET|56=WCHVR1|43=N|52=20100201-16:15:59|122=20100201-16:15:59|34=573|10=187|8=FIX.4.0|9=087|35=1|49=INET|56=WCHVR1|43=N|52=20100201-16:16:00|122=20100201-16:16:00|34=574|112=_TR_|10=217|8=FIX.4.0|9=078|35=0|49=INET|56=WCHVR1|43=N|52=20100201-16:16:50|122=20100201-16:16:50|34=575|10=173|8=FIX.4.0|9=087|35=1|49=INET|56=WCHVR1|43=N|52=20100201-16:16:51|122=20100201-16:16:51|34=576|112=_TR_|10=231|8=FIX.4.0|9=078|35=0|49=INET|56=WCHVR1|43=N|52=20100201-16:17:41|122=20100201-16:17:41|34=577|10=177|8=FIX.4.0|9=087|35=1|49=INET|56=WCHVR1|43=N|52=20100201-16:17:42|122=20100201-16:17:42|34=578|112=_TR_|10=235|8=FIX.4.0|9=078|35=0|49=INET|56=WCHVR1|43=N|52=20100201-16:18:32|122=20100201-16:18:32|34=579|10=181|8=FIX.4.0|9=087|35=1|49=INET|56=WCHVR1|43=N|52=20100201-16:18:33|122=20100201-16:18:33|34=580|112=_TR_|10=230|8=FIX.4.0|9=078|35=0|49=INET|56=WCHVR1|43=N|52=20100201-16:19:23|122=20100201-16:19:23|34=581|10=176|8=FIX.4.0|9=087|35=1|49=INET|56=WCHVR1|43=N|52=20100201-16:19:24|122=20100201-16:19:24|34=582|112=_TR_|10=234|8=FIX.4.0|9=078|35=0|49=INET|56=WCHVR1|43=N|52=20100201-16:20:14|122=20100201-16:20:14|34=583|10=162|8=FIX.4.0|9=078|35=0|49=INET|56=WCHVR1|43=N|52=20100201-16:21:04|122=20100201-16:21:04|34=584|10=163|8=FIX.4.0|9=087|35=1|49=INET|56=WCHVR1|43=N|52=20100201-16:21:06|122=20100201-16:21:06|34=585|112=_TR_|10=223|8=FIX.4.0|9=078|35=0|49=INET|56=WCHVR1|43=N|52=20100201-16:21:56|122=20100201-16:21:56|34=586|10=179|8=FIX.4.0|9=087|35=1|49=INET|56=WCHVR1|43=N|52=20100201-16:21:57|122=20100201-16:21:57|34=587|112=_TR_|10=237|8=FIX.4.0|9=078|35=0|49=INET|56=WCHVR1|43=N|52=20100201-16:22:47|122=20100201-16:22:47|34=588|10=183|8=FIX.4.0|9=087|35=1|49=INET|56=WCHVR1|43=N|52=20100201-16:22:48|122=20100201-16:22:48|34=589|112=_TR_|10=241|8=FIX.4.0|9=078|35=0|49=INET|56=WCHVR1|43=N|52=20100201-16:23:38|122=20100201-16:23:38|34=590|10=178|8=FIX.4.0|9=087|35=1|49=INET|56=WCHVR1|43=N|52=20100201-16:23:39|122=20100201-16:23:39|34=591|112=_TR_|10=236|8=FIX.4.0|9=078|35=0|49=INET|56=WCHVR1|43=N|52=20100201-16:24:29|122=20100201-16:24:29|34=592|10=182|8=FIX.4.0|9=087|35=1|49=INET|56=WCHVR1|43=N|52=20100201-16:24:30|122=20100201-16:24:30|34=593|112=_TR_|10=222|8=FIX.4.0|9=078|35=0|49=INET|56=WCHVR1|43=N|52=20100201-16:25:20|122=20100201-16:25:20|34=594|10=168|8=FIX.4.0|9=087|35=1|49=INET|56=WCHVR1|43=N|52=20100201-16:25:21|122=20100201-16:25:21|34=595|112=_TR_|10=226|8=FIX.4.0|9=078|35=0|49=INET|56=WCHVR1|43=N|52=20100201-16:26:11|122=20100201-16:26:11|34=596|10=172|8=FIX.4.0|9=087|35=1|49=INET|56=WCHVR1|43=N|52=20100201-16:26:12|122=20100201-16:26:12|34=597|112=_TR_|10=230|8=FIX.4.0|9=078|35=0|49=INET|56=WCHVR1|43=N|52=20100201-16:27:02|122=20100201-16:27:02|34=598|10=176|8=FIX.4.0|9=087|35=1|49=INET|56=WCHVR1|43=N|52=20100201-16:27:03|122=20100201-16:27:03|34=599|112=_TR_|10=234|8=FIX.4.0|9=078|35=0|49=INET|56=WCHVR1|43=N|52=20100201-16:27:53|122=20100201-16:27:53|34=600|10=172|8=FIX.4.0|9=078|35=0|49=INET|56=WCHVR1|43=N|52=20100201-16:28:43|122=20100201-16:28:43|34=601|10=173|8=FIX.4.0|9=087|35=1|49=INET|56=WCHVR1|43=N|52=20100201-16:28:45|122=20100201-16:28:45|34=602|112=_TR_|10=233|8=FIX.4.0|9=078|35=0|49=INET|56=WCHVR1|43=N|52=20100201-16:29:35|122=20100201-16:29:35|34=603|10=179|8=FIX.4.0|9=087|35=1|49=INET|56=WCHVR1|43=N|52=20100201-16:29:36|122=20100201-16:29:36|34=604|112=_TR_|10=237|8=FIX.4.0|9=078|35=0|49=INET|56=WCHVR1|43=N|52=20100201-16:30:26|122=20100201-16:30:26|34=605|10=165|8=FIX.4.0|9=087|35=1|49=INET|56=WCHVR1|43=N|52=20100201-16:30:27|122=20100201-16:30:27|34=606|112=_TR_|10=223|8=FIX.4.0|9=078|35=0|49=INET|56=WCHVR1|43=N|52=20100201-16:31:17|122=20100201-16:31:17|34=607|10=169|8=FIX.4.0|9=087|35=1|49=INET|56=WCHVR1|43=N|52=20100201-16:31:18|122=20100201-16:31:18|34=608|112=_TR_|10=227|8=FIX.4.0|9=078|35=0|49=INET|56=WCHVR1|43=N|52=20100201-16:32:08|122=20100201-16:32:08|34=609|10=173|8=FIX.4.0|9=087|35=1|49=INET|56=WCHVR1|43=N|52=20100201-16:32:09|122=20100201-16:32:09|34=610|112=_TR_|10=222|8=FIX.4.0|9=078|35=0|49=INET|56=WCHVR1|43=N|52=20100201-16:32:59|122=20100201-16:32:59|34=611|10=178|8=FIX.4.0|9=078|35=0|49=INET|56=WCHVR1|43=N|52=20100201-16:33:49|122=20100201-16:33:49|34=612|10=179|8=FIX.4.0|9=087|35=1|49=INET|56=WCHVR1|43=N|52=20100201-16:33:51|122=20100201-16:33:51|34=613|112=_TR_|10=221|8=FIX.4.0|9=078|35=0|49=INET|56=WCHVR1|43=N|52=20100201-16:34:41|122=20100201-16:34:41|34=614|10=167|8=FIX.4.0|9=087|35=1|49=INET|56=WCHVR1|43=N|52=20100201-16:34:42|122=20100201-16:34:42|34=615|112=_TR_|10=225|8=FIX.4.0|9=078|35=0|49=INET|56=WCHVR1|43=N|52=20100201-16:35:32|122=20100201-16:35:32|34=616|10=171|8=FIX.4.0|9=087|35=1|49=INET|56=WCHVR1|43=N|52=20100201-16:35:33|122=20100201-16:35:33|34=617|112=_TR_|10=229|8=FIX.4.0|9=078|35=0|49=INET|56=WCHVR1|43=N|52=20100201-16:36:23|122=20100201-16:36:23|34=618|10=175|8=FIX.4.0|9=087|35=1|49=INET|56=WCHVR1|43=N|52=20100201-16:36:24|122=20100201-16:36:24|34=619|112=_TR_|10=233|8=FIX.4.0|9=078|35=0|49=INET|56=WCHVR1|43=N|52=20100201-16:37:14|122=20100201-16:37:14|34=620|10=170|8=FIX.4.0|9=087|35=1|49=INET|56=WCHVR1|43=N|52=20100201-16:37:15|122=20100201-16:37:15|34=621|112=_TR_|10=228|8=FIX.4.0|9=078|35=0|49=INET|56=WCHVR1|43=N|52=20100201-16:38:05|122=20100201-16:38:05|34=622|10=174|8=FIX.4.0|9=087|35=1|49=INET|56=WCHVR1|43=N|52=20100201-16:38:06|122=20100201-16:38:06|34=623|112=_TR_|10=232|8=FIX.4.0|9=078|35=0|49=INET|56=WCHVR1|43=N|52=20100201-16:38:56|122=20100201-16:38:56|34=624|10=188|8=FIX.4.0|9=087|35=1|49=INET|56=WCHVR1|43=N|52=20100201-16:38:57|122=20100201-16:38:57|34=625|112=_TR_|10=246|8=FIX.4.0|9=078|35=0|49=INET|56=WCHVR1|43=N|52=20100201-16:39:47|122=20100201-16:39:47|34=626|10=192|8=FIX.4.0|9=087|35=1|49=INET|56=WCHVR1|43=N|52=20100201-16:39:48|122=20100201-16:39:48|34=627|112=_TR_|10=250|8=FIX.4.0|9=078|35=0|49=INET|56=WCHVR1|43=N|52=20100201-16:40:38|122=20100201-16:40:38|34=628|10=178|8=FIX.4.0|9=087|35=1|49=INET|56=WCHVR1|43=N|52=20100201-16:40:39|122=20100201-16:40:39|34=629|112=_TR_|10=236|8=FIX.4.0|9=078|35=0|49=INET|56=WCHVR1|43=N|52=20100201-16:41:29|122=20100201-16:41:29|34=630|10=173|8=FIX.4.0|9=078|35=0|49=INET|56=WCHVR1|43=N|52=20100201-16:42:19|122=20100201-16:42:19|34=631|10=174|8=FIX.4.0|9=087|35=1|49=INET|56=WCHVR1|43=N|52=20100201-16:42:21|122=20100201-16:42:21|34=632|112=_TR_|10=216|8=FIX.4.0|9=078|35=0|49=INET|56=WCHVR1|43=N|52=20100201-16:43:11|122=20100201-16:43:11|34=633|10=162|8=FIX.4.0|9=087|35=1|49=INET|56=WCHVR1|43=N|52=20100201-16:43:12|122=20100201-16:43:12|34=634|112=_TR_|10=220|8=FIX.4.0|9=078|35=0|49=INET|56=WCHVR1|43=N|52=20100201-16:44:02|122=20100201-16:44:02|34=635|10=166|8=FIX.4.0|9=087|35=1|49=INET|56=WCHVR1|43=N|52=20100201-16:44:03|122=20100201-16:44:03|34=636|112=_TR_|10=224|8=FIX.4.0|9=078|35=0|49=INET|56=WCHVR1|43=N|52=20100201-16:44:53|122=20100201-16:44:53|34=637|10=180|8=FIX.4.0|9=087|35=1|49=INET|56=WCHVR1|43=N|52=20100201-16:44:54|122=20100201-16:44:54|34=638|112=_TR_|10=238|8=FIX.4.0|9=078|35=0|49=INET|56=WCHVR1|43=N|52=20100201-16:45:44|122=20100201-16:45:44|34=639|10=184|8=FIX.4.0|9=087|35=1|49=INET|56=WCHVR1|43=N|52=20100201-16:45:45|122=20100201-16:45:45|34=640|112=_TR_|10=233|8=FIX.4.0|9=078|35=0|49=INET|56=WCHVR1|43=N|52=20100201-16:46:35|122=20100201-16:46:35|34=641|10=179|8=FIX.4.0|9=087|35=1|49=INET|56=WCHVR1|43=N|52=20100201-16:46:36|122=20100201-16:46:36|34=642|112=_TR_|10=237|8=FIX.4.0|9=078|35=0|49=INET|56=WCHVR1|43=N|52=20100201-16:47:26|122=20100201-16:47:26|34=643|10=183|8=FIX.4.0|9=078|35=0|49=INET|56=WCHVR1|43=N|52=20100201-16:48:16|122=20100201-16:48:16|34=644|10=184|8=FIX.4.0|9=087|35=1|49=INET|56=WCHVR1|43=N|52=20100201-16:48:18|122=20100201-16:48:18|34=645|112=_TR_|10=244|8=FIX.4.0|9=078|35=0|49=INET|56=WCHVR1|43=N|52=20100201-16:49:08|122=20100201-16:49:08|34=646|10=190|8=FIX.4.0|9=078|35=0|49=INET|56=WCHVR1|43=N|52=20100201-16:49:58|122=20100201-16:49:58|34=647|10=201|8=FIX.4.0|9=087|35=1|49=INET|56=WCHVR1|43=N|52=20100201-16:50:00|122=20100201-16:50:00|34=648|112=_TR_|10=215|8=FIX.4.0|9=078|35=0|49=INET|56=WCHVR1|43=N|52=20100201-16:50:50|122=20100201-16:50:50|34=649|10=171|8=FIX.4.0|9=087|35=1|49=INET|56=WCHVR1|43=N|52=20100201-16:50:51|122=20100201-16:50:51|34=650|112=_TR_|10=220|8=FIX.4.0|9=078|35=0|49=INET|56=WCHVR1|43=N|52=20100201-16:51:41|122=20100201-16:51:41|34=651|10=166|8=FIX.4.0|9=087|35=1|49=INET|56=WCHVR1|43=N|52=20100201-16:51:42|122=20100201-16:51:42|34=652|112=_TR_|10=224|8=FIX.4.0|9=078|35=0|49=INET|56=WCHVR1|43=N|52=20100201-16:52:32|122=20100201-16:52:32|34=653|10=170|8=FIX.4.0|9=087|35=1|49=INET|56=WCHVR1|43=N|52=20100201-16:52:33|122=20100201-16:52:33|34=654|112=_TR_|10=228|8=FIX.4.0|9=078|35=0|49=INET|56=WCHVR1|43=N|52=20100201-16:53:23|122=20100201-16:53:23|34=655|10=174|8=FIX.4.0|9=087|35=1|49=INET|56=WCHVR1|43=N|52=20100201-16:53:24|122=20100201-16:53:24|34=656|112=_TR_|10=232|8=FIX.4.0|9=078|35=0|49=INET|56=WCHVR1|43=N|52=20100201-16:54:14|122=20100201-16:54:14|34=657|10=178|8=FIX.4.0|9=087|35=1|49=INET|56=WCHVR1|43=N|52=20100201-16:54:15|122=20100201-16:54:15|34=658|112=_TR_|10=236|8=FIX.4.0|9=078|35=0|49=INET|56=WCHVR1|43=N|52=20100201-16:55:05|122=20100201-16:55:05|34=659|10=182|8=FIX.4.0|9=078|35=0|49=INET|56=WCHVR1|43=N|52=20100201-16:55:55|122=20100201-16:55:55|34=660|10=184|8=FIX.4.0|9=087|35=1|49=INET|56=WCHVR1|43=N|52=20100201-16:55:57|122=20100201-16:55:57|34=661|112=_TR_|10=244|8=FIX.4.0|9=078|35=0|49=INET|56=WCHVR1|43=N|52=20100201-16:56:47|122=20100201-16:56:47|34=662|10=190|8=FIX.4.0|9=087|35=1|49=INET|56=WCHVR1|43=N|52=20100201-16:56:48|122=20100201-16:56:48|34=663|112=_TR_|10=248|8=FIX.4.0|9=078|35=0|49=INET|56=WCHVR1|43=N|52=20100201-16:57:38|122=20100201-16:57:38|34=664|10=194|8=FIX.4.0|9=087|35=1|49=INET|56=WCHVR1|43=N|52=20100201-16:57:39|122=20100201-16:57:39|34=665|112=_TR_|10=252|8=FIX.4.0|9=078|35=0|49=INET|56=WCHVR1|43=N|52=20100201-16:58:29|122=20100201-16:58:29|34=666|10=198|8=FIX.4.0|9=087|35=1|49=INET|56=WCHVR1|43=N|52=20100201-16:58:30|122=20100201-16:58:30|34=667|112=_TR_|10=238|8=FIX.4.0|9=078|35=0|49=INET|56=WCHVR1|43=N|52=20100201-16:59:20|122=20100201-16:59:20|34=668|10=184|8=FIX.4.0|9=087|35=1|49=INET|56=WCHVR1|43=N|52=20100201-16:59:21|122=20100201-16:59:21|34=669|112=_TR_|10=242|8=FIX.4.0|9=078|35=0|49=INET|56=WCHVR1|43=N|52=20100201-17:00:11|122=20100201-17:00:11|34=670|10=151|8=FIX.4.0|9=087|35=1|49=INET|56=WCHVR1|43=N|52=20100201-17:00:12|122=20100201-17:00:12|34=671|112=_TR_|10=209|8=FIX.4.0|9=078|35=0|49=INET|56=WCHVR1|43=N|52=20100201-17:01:02|122=20100201-17:01:02|34=672|10=155|8=FIX.4.0|9=087|35=1|49=INET|56=WCHVR1|43=N|52=20100201-17:01:03|122=20100201-17:01:03|34=673|112=_TR_|10=213|8=FIX.4.0|9=078|35=0|49=INET|56=WCHVR1|43=N|52=20100201-17:01:53|122=20100201-17:01:53|34=674|10=169|8=FIX.4.0|9=087|35=1|49=INET|56=WCHVR1|43=N|52=20100201-17:01:54|122=20100201-17:01:54|34=675|112=_TR_|10=227|8=FIX.4.0|9=078|35=0|49=INET|56=WCHVR1|43=N|52=20100201-17:02:44|122=20100201-17:02:44|34=676|10=173|8=FIX.4.0|9=087|35=1|49=INET|56=WCHVR1|43=N|52=20100201-17:02:45|122=20100201-17:02:45|34=677|112=_TR_|10=231|8=FIX.4.0|9=078|35=0|49=INET|56=WCHVR1|43=N|52=20100201-17:03:35|122=20100201-17:03:35|34=678|10=177|8=FIX.4.0|9=087|35=1|49=INET|56=WCHVR1|43=N|52=20100201-17:03:36|122=20100201-17:03:36|34=679|112=_TR_|10=235|8=FIX.4.0|9=078|35=0|49=INET|56=WCHVR1|43=N|52=20100201-17:04:26|122=20100201-17:04:26|34=680|10=172|8=FIX.4.0|9=087|35=1|49=INET|56=WCHVR1|43=N|52=20100201-17:04:27|122=20100201-17:04:27|34=681|112=_TR_|10=230|8=FIX.4.0|9=078|35=0|49=INET|56=WCHVR1|43=N|52=20100201-17:05:17|122=20100201-17:05:17|34=682|10=176|8=FIX.4.0|9=078|35=0|49=INET|56=WCHVR1|43=N|52=20100201-17:06:07|122=20100201-17:06:07|34=683|10=177|8=FIX.4.0|9=087|35=1|49=INET|56=WCHVR1|43=N|52=20100201-17:06:09|122=20100201-17:06:09|34=684|112=_TR_|10=237|8=FIX.4.0|9=078|35=0|49=INET|56=WCHVR1|43=N|52=20100201-17:06:59|122=20100201-17:06:59|34=685|10=193|8=FIX.4.0|9=087|35=1|49=INET|56=WCHVR1|43=N|52=20100201-17:07:00|122=20100201-17:07:00|34=686|112=_TR_|10=223|8=FIX.4.0|9=078|35=0|49=INET|56=WCHVR1|43=N|52=20100201-17:07:50|122=20100201-17:07:50|34=687|10=179|8=FIX.4.0|9=087|35=1|49=INET|56=WCHVR1|43=N|52=20100201-17:07:51|122=20100201-17:07:51|34=688|112=_TR_|10=237|8=FIX.4.0|9=078|35=0|49=INET|56=WCHVR1|43=N|52=20100201-17:08:41|122=20100201-17:08:41|34=689|10=183|8=FIX.4.0|9=078|35=0|49=INET|56=WCHVR1|43=N|52=20100201-17:09:31|122=20100201-17:09:31|34=690|10=175|8=FIX.4.0|9=078|35=0|49=INET|56=WCHVR1|43=N|52=20100201-17:10:21|122=20100201-17:10:21|34=691|10=158|8=FIX.4.0|9=078|35=0|49=INET|56=WCHVR1|43=N|52=20100201-17:11:11|122=20100201-17:11:11|34=692|10=159|8=FIX.4.0|9=087|35=1|49=INET|56=WCHVR1|43=N|52=20100201-17:11:15|122=20100201-17:11:15|34=693|112=_TR_|10=223|8=FIX.4.0|9=078|35=0|49=INET|56=WCHVR1|43=N|52=20100201-17:12:05|122=20100201-17:12:05|34=694|10=169|8=FIX.4.0|9=087|35=1|49=INET|56=WCHVR1|43=N|52=20100201-17:12:06|122=20100201-17:12:06|34=695|112=_TR_|10=227|8=FIX.4.0|9=078|35=0|49=INET|56=WCHVR1|43=N|52=20100201-17:12:56|122=20100201-17:12:56|34=696|10=183|8=FIX.4.0|9=087|35=1|49=INET|56=WCHVR1|43=N|52=20100201-17:12:57|122=20100201-17:12:57|34=697|112=_TR_|10=241|8=FIX.4.0|9=078|35=0|49=INET|56=WCHVR1|43=N|52=20100201-17:13:47|122=20100201-17:13:47|34=698|10=187|8=FIX.4.0|9=087|35=1|49=INET|56=WCHVR1|43=N|52=20100201-17:13:48|122=20100201-17:13:48|34=699|112=_TR_|10=245|8=FIX.4.0|9=078|35=0|49=INET|56=WCHVR1|43=N|52=20100201-17:14:38|122=20100201-17:14:38|34=700|10=173|8=FIX.4.0|9=087|35=1|49=INET|56=WCHVR1|43=N|52=20100201-17:14:39|122=20100201-17:14:39|34=701|112=_TR_|10=231|8=FIX.4.0|9=078|35=0|49=INET|56=WCHVR1|43=N|52=20100201-17:15:29|122=20100201-17:15:29|34=702|10=177|8=FIX.4.0|9=087|35=1|49=INET|56=WCHVR1|43=N|52=20100201-17:15:30|122=20100201-17:15:30|34=703|112=_TR_|10=217|8=FIX.4.0|9=078|35=0|49=INET|56=WCHVR1|43=N|52=20100201-17:16:20|122=20100201-17:16:20|34=704|10=163|8=FIX.4.0|9=087|35=1|49=INET|56=WCHVR1|43=N|52=20100201-17:16:21|122=20100201-17:16:21|34=705|112=_TR_|10=221|8=FIX.4.0|9=078|35=0|49=INET|56=WCHVR1|43=N|52=20100201-17:17:11|122=20100201-17:17:11|34=706|10=167|8=FIX.4.0|9=087|35=1|49=INET|56=WCHVR1|43=N|52=20100201-17:17:12|122=20100201-17:17:12|34=707|112=_TR_|10=225|8=FIX.4.0|9=078|35=0|49=INET|56=WCHVR1|43=N|52=20100201-17:18:02|122=20100201-17:18:02|34=708|10=171|8=FIX.4.0|9=087|35=1|49=INET|56=WCHVR1|43=N|52=20100201-17:18:03|122=20100201-17:18:03|34=709|112=_TR_|10=229|8=FIX.4.0|9=078|35=0|49=INET|56=WCHVR1|43=N|52=20100201-17:18:53|122=20100201-17:18:53|34=710|10=176|8=FIX.4.0|9=087|35=1|49=INET|56=WCHVR1|43=N|52=20100201-17:18:54|122=20100201-17:18:54|34=711|112=_TR_|10=234|8=FIX.4.0|9=078|35=0|49=INET|56=WCHVR1|43=N|52=20100201-17:19:44|122=20100201-17:19:44|34=712|10=180|8=FIX.4.0|9=087|35=1|49=INET|56=WCHVR1|43=N|52=20100201-17:19:45|122=20100201-17:19:45|34=713|112=_TR_|10=238|8=FIX.4.0|9=078|35=0|49=INET|56=WCHVR1|43=N|52=20100201-17:20:35|122=20100201-17:20:35|34=714|10=166|8=FIX.4.0|9=087|35=1|49=INET|56=WCHVR1|43=N|52=20100201-17:20:36|122=20100201-17:20:36|34=715|112=_TR_|10=224|8=FIX.4.0|9=078|35=0|49=INET|56=WCHVR1|43=N|52=20100201-17:21:26|122=20100201-17:21:26|34=716|10=170|8=FIX.4.0|9=087|35=1|49=INET|56=WCHVR1|43=N|52=20100201-17:21:27|122=20100201-17:21:27|34=717|112=_TR_|10=228|8=FIX.4.0|9=078|35=0|49=INET|56=WCHVR1|43=N|52=20100201-17:22:17|122=20100201-17:22:17|34=718|10=174|8=FIX.4.0|9=087|35=1|49=INET|56=WCHVR1|43=N|52=20100201-17:22:18|122=20100201-17:22:18|34=719|112=_TR_|10=232|8=FIX.4.0|9=078|35=0|49=INET|56=WCHVR1|43=N|52=20100201-17:23:08|122=20100201-17:23:08|34=720|10=169|8=FIX.4.0|9=087|35=1|49=INET|56=WCHVR1|43=N|52=20100201-17:23:09|122=20100201-17:23:09|34=721|112=_TR_|10=227|8=FIX.4.0|9=078|35=0|49=INET|56=WCHVR1|43=N|52=20100201-17:23:59|122=20100201-17:23:59|34=722|10=183|8=FIX.4.0|9=087|35=1|49=INET|56=WCHVR1|43=N|52=20100201-17:24:00|122=20100201-17:24:00|34=723|112=_TR_|10=213|8=FIX.4.0|9=078|35=0|49=INET|56=WCHVR1|43=N|52=20100201-17:24:50|122=20100201-17:24:50|34=724|10=169|8=FIX.4.0|9=087|35=1|49=INET|56=WCHVR1|43=N|52=20100201-17:24:51|122=20100201-17:24:51|34=725|112=_TR_|10=227|8=FIX.4.0|9=078|35=0|49=INET|56=WCHVR1|43=N|52=20100201-17:25:41|122=20100201-17:25:41|34=726|10=173|8=FIX.4.0|9=087|35=1|49=INET|56=WCHVR1|43=N|52=20100201-17:25:42|122=20100201-17:25:42|34=727|112=_TR_|10=231|8=FIX.4.0|9=078|35=0|49=INET|56=WCHVR1|43=N|52=20100201-17:26:32|122=20100201-17:26:32|34=728|10=177|8=FIX.4.0|9=078|35=0|49=INET|56=WCHVR1|43=N|52=20100201-17:27:22|122=20100201-17:27:22|34=729|10=178|8=FIX.4.0|9=087|35=1|49=INET|56=WCHVR1|43=N|52=20100201-17:27:24|122=20100201-17:27:24|34=730|112=_TR_|10=229|8=FIX.4.0|9=078|35=0|49=INET|56=WCHVR1|43=N|52=20100201-17:28:14|122=20100201-17:28:14|34=731|10=175|8=FIX.4.0|9=087|35=1|49=INET|56=WCHVR1|43=N|52=20100201-17:28:15|122=20100201-17:28:15|34=732|112=_TR_|10=233|8=FIX.4.0|9=078|35=0|49=INET|56=WCHVR1|43=N|52=20100201-17:29:05|122=20100201-17:29:05|34=733|10=179|8=FIX.4.0|9=087|35=1|49=INET|56=WCHVR1|43=N|52=20100201-17:29:06|122=20100201-17:29:06|34=734|112=_TR_|10=237|8=FIX.4.0|9=078|35=0|49=INET|56=WCHVR1|43=N|52=20100201-17:29:56|122=20100201-17:29:56|34=735|10=193|8=FIX.4.0|9=087|35=1|49=INET|56=WCHVR1|43=N|52=20100201-17:29:57|122=20100201-17:29:57|34=736|112=_TR_|10=251|8=FIX.4.0|9=078|35=0|49=INET|56=WCHVR1|43=N|52=20100201-17:30:47|122=20100201-17:30:47|34=737|10=179|8=FIX.4.0|9=087|35=1|49=INET|56=WCHVR1|43=N|52=20100201-17:30:48|122=20100201-17:30:48|34=738|112=_TR_|10=237|8=FIX.4.0|9=078|35=0|49=INET|56=WCHVR1|43=N|52=20100201-17:31:38|122=20100201-17:31:38|34=739|10=183|8=FIX.4.0|9=087|35=1|49=INET|56=WCHVR1|43=N|52=20100201-17:31:39|122=20100201-17:31:39|34=740|112=_TR_|10=232|8=FIX.4.0|9=078|35=0|49=INET|56=WCHVR1|43=N|52=20100201-17:32:29|122=20100201-17:32:29|34=741|10=178|8=FIX.4.0|9=087|35=1|49=INET|56=WCHVR1|43=N|52=20100201-17:32:30|122=20100201-17:32:30|34=742|112=_TR_|10=218|8=FIX.4.0|9=078|35=0|49=INET|56=WCHVR1|43=N|52=20100201-17:33:20|122=20100201-17:33:20|34=743|10=164|8=FIX.4.0|9=087|35=1|49=INET|56=WCHVR1|43=N|52=20100201-17:33:21|122=20100201-17:33:21|34=744|112=_TR_|10=222|8=FIX.4.0|9=078|35=0|49=INET|56=WCHVR1|43=N|52=20100201-17:34:11|122=20100201-17:34:11|34=745|10=168|8=FIX.4.0|9=087|35=1|49=INET|56=WCHVR1|43=N|52=20100201-17:34:12|122=20100201-17:34:12|34=746|112=_TR_|10=226|8=FIX.4.0|9=078|35=0|49=INET|56=WCHVR1|43=N|52=20100201-17:35:02|122=20100201-17:35:02|34=747|10=172|8=FIX.4.0|9=087|35=1|49=INET|56=WCHVR1|43=N|52=20100201-17:35:03|122=20100201-17:35:03|34=748|112=_TR_|10=230|8=FIX.4.0|9=078|35=0|49=INET|56=WCHVR1|43=N|52=20100201-17:35:53|122=20100201-17:35:53|34=749|10=186|8=FIX.4.0|9=087|35=1|49=INET|56=WCHVR1|43=N|52=20100201-17:35:54|122=20100201-17:35:54|34=750|112=_TR_|10=235|8=FIX.4.0|9=078|35=0|49=INET|56=WCHVR1|43=N|52=20100201-17:36:44|122=20100201-17:36:44|34=751|10=181|8=FIX.4.0|9=078|35=0|49=INET|56=WCHVR1|43=N|52=20100201-17:37:34|122=20100201-17:37:34|34=752|10=182|8=FIX.4.0|9=087|35=1|49=INET|56=WCHVR1|43=N|52=20100201-17:37:36|122=20100201-17:37:36|34=753|112=_TR_|10=242|8=FIX.4.0|9=078|35=0|49=INET|56=WCHVR1|43=N|52=20100201-17:38:26|122=20100201-17:38:26|34=754|10=188|8=FIX.4.0|9=087|35=1|49=INET|56=WCHVR1|43=N|52=20100201-17:38:27|122=20100201-17:38:27|34=755|112=_TR_|10=246|8=FIX.4.0|9=078|35=0|49=INET|56=WCHVR1|43=N|52=20100201-17:39:17|122=20100201-17:39:17|34=756|10=192|8=FIX.4.0|9=087|35=1|49=INET|56=WCHVR1|43=N|52=20100201-17:39:18|122=20100201-17:39:18|34=757|112=_TR_|10=250|8=FIX.4.0|9=078|35=0|49=INET|56=WCHVR1|43=N|52=20100201-17:40:08|122=20100201-17:40:08|34=758|10=178|8=FIX.4.0|9=087|35=1|49=INET|56=WCHVR1|43=N|52=20100201-17:40:09|122=20100201-17:40:09|34=759|112=_TR_|10=236|8=FIX.4.0|9=078|35=0|49=INET|56=WCHVR1|43=N|52=20100201-17:40:59|122=20100201-17:40:59|34=760|10=183|8=FIX.4.0|9=087|35=1|49=INET|56=WCHVR1|43=N|52=20100201-17:41:00|122=20100201-17:41:00|34=761|112=_TR_|10=213|8=FIX.4.0|9=078|35=0|49=INET|56=WCHVR1|43=N|52=20100201-17:41:50|122=20100201-17:41:50|34=762|10=169|8=FIX.4.0|9=087|35=1|49=INET|56=WCHVR1|43=N|52=20100201-17:41:51|122=20100201-17:41:51|34=763|112=_TR_|10=227|8=FIX.4.0|9=078|35=0|49=INET|56=WCHVR1|43=N|52=20100201-17:42:41|122=20100201-17:42:41|34=764|10=173|8=FIX.4.0|9=087|35=1|49=INET|56=WCHVR1|43=N|52=20100201-17:42:42|122=20100201-17:42:42|34=765|112=_TR_|10=231|8=FIX.4.0|9=078|35=0|49=INET|56=WCHVR1|43=N|52=20100201-17:43:32|122=20100201-17:43:32|34=766|10=177|8=FIX.4.0|9=078|35=0|49=INET|56=WCHVR1|43=N|52=20100201-17:44:22|122=20100201-17:44:22|34=767|10=178|8=FIX.4.0|9=087|35=1|49=INET|56=WCHVR1|43=N|52=20100201-17:44:24|122=20100201-17:44:24|34=768|112=_TR_|10=238|8=FIX.4.0|9=078|35=0|49=INET|56=WCHVR1|43=N|52=20100201-17:45:14|122=20100201-17:45:14|34=769|10=184|8=FIX.4.0|9=087|35=1|49=INET|56=WCHVR1|43=N|52=20100201-17:45:15|122=20100201-17:45:15|34=770|112=_TR_|10=233|8=FIX.4.0|9=078|35=0|49=INET|56=WCHVR1|43=N|52=20100201-17:46:05|122=20100201-17:46:05|34=771|10=179|8=FIX.4.0|9=087|35=1|49=INET|56=WCHVR1|43=N|52=20100201-17:46:06|122=20100201-17:46:06|34=772|112=_TR_|10=237|8=FIX.4.0|9=078|35=0|49=INET|56=WCHVR1|43=N|52=20100201-17:46:56|122=20100201-17:46:56|34=773|10=193|8=FIX.4.0|9=087|35=1|49=INET|56=WCHVR1|43=N|52=20100201-17:46:57|122=20100201-17:46:57|34=774|112=_TR_|10=251|8=FIX.4.0|9=078|35=0|49=INET|56=WCHVR1|43=N|52=20100201-17:47:47|122=20100201-17:47:47|34=775|10=197|8=FIX.4.0|9=078|35=0|49=INET|56=WCHVR1|43=N|52=20100201-17:48:37|122=20100201-17:48:37|34=776|10=198|8=FIX.4.0|9=087|35=1|49=INET|56=WCHVR1|43=N|52=20100201-17:48:39|122=20100201-17:48:39|34=777|112=_TR_|10=002|8=FIX.4.0|9=078|35=0|49=INET|56=WCHVR1|43=N|52=20100201-17:49:29|122=20100201-17:49:29|34=778|10=204|8=FIX.4.0|9=087|35=1|49=INET|56=WCHVR1|43=N|52=20100201-17:49:30|122=20100201-17:49:30|34=779|112=_TR_|10=244|8=FIX.4.0|9=078|35=0|49=INET|56=WCHVR1|43=N|52=20100201-17:50:20|122=20100201-17:50:20|34=780|10=163|8=FIX.4.0|9=087|35=1|49=INET|56=WCHVR1|43=N|52=20100201-17:50:21|122=20100201-17:50:21|34=781|112=_TR_|10=221|8=FIX.4.0|9=078|35=0|49=INET|56=WCHVR1|43=N|52=20100201-17:51:11|122=20100201-17:51:11|34=782|10=167|8=FIX.4.0|9=087|35=1|49=INET|56=WCHVR1|43=N|52=20100201-17:51:12|122=20100201-17:51:12|34=783|112=_TR_|10=225|8=FIX.4.0|9=078|35=0|49=INET|56=WCHVR1|43=N|52=20100201-17:52:02|122=20100201-17:52:02|34=784|10=171|8=FIX.4.0|9=087|35=1|49=INET|56=WCHVR1|43=N|52=20100201-17:52:03|122=20100201-17:52:03|34=785|112=_TR_|10=229|8=FIX.4.0|9=078|35=0|49=INET|56=WCHVR1|43=N|52=20100201-17:52:53|122=20100201-17:52:53|34=786|10=185|8=FIX.4.0|9=087|35=1|49=INET|56=WCHVR1|43=N|52=20100201-17:52:54|122=20100201-17:52:54|34=787|112=_TR_|10=243|8=FIX.4.0|9=078|35=0|49=INET|56=WCHVR1|43=N|52=20100201-17:53:44|122=20100201-17:53:44|34=788|10=189|8=FIX.4.0|9=087|35=1|49=INET|56=WCHVR1|43=N|52=20100201-17:53:45|122=20100201-17:53:45|34=789|112=_TR_|10=247|8=FIX.4.0|9=078|35=0|49=INET|56=WCHVR1|43=N|52=20100201-17:54:35|122=20100201-17:54:35|34=790|10=184|8=FIX.4.0|9=087|35=1|49=INET|56=WCHVR1|43=N|52=20100201-17:54:36|122=20100201-17:54:36|34=791|112=_TR_|10=242|8=FIX.4.0|9=078|35=0|49=INET|56=WCHVR1|43=N|52=20100201-17:55:26|122=20100201-17:55:26|34=792|10=188|8=FIX.4.0|9=087|35=1|49=INET|56=WCHVR1|43=N|52=20100201-17:55:27|122=20100201-17:55:27|34=793|112=_TR_|10=246|8=FIX.4.0|9=078|35=0|49=INET|56=WCHVR1|43=N|52=20100201-17:56:17|122=20100201-17:56:17|34=794|10=192|8=FIX.4.0|9=087|35=1|49=INET|56=WCHVR1|43=N|52=20100201-17:56:18|122=20100201-17:56:18|34=795|112=_TR_|10=250|8=FIX.4.0|9=078|35=0|49=INET|56=WCHVR1|43=N|52=20100201-17:57:08|122=20100201-17:57:08|34=796|10=196|8=FIX.4.0|9=078|35=0|49=INET|56=WCHVR1|43=N|52=20100201-17:57:58|122=20100201-17:57:58|34=797|10=207|8=FIX.4.0|9=087|35=1|49=INET|56=WCHVR1|43=N|52=20100201-17:58:00|122=20100201-17:58:00|34=798|112=_TR_|10=239|8=FIX.4.0|9=078|35=0|49=INET|56=WCHVR1|43=N|52=20100201-17:58:50|122=20100201-17:58:50|34=799|10=195|8=FIX.4.0|9=087|35=1|49=INET|56=WCHVR1|43=N|52=20100201-17:58:51|122=20100201-17:58:51|34=800|112=_TR_|10=235|8=FIX.4.0|9=078|35=0|49=INET|56=WCHVR1|43=N|52=20100201-17:59:41|122=20100201-17:59:41|34=801|10=181|8=FIX.4.0|9=087|35=1|49=INET|56=WCHVR1|43=N|52=20100201-17:59:42|122=20100201-17:59:42|34=802|112=_TR_|10=239|8=FIX.4.0|9=078|35=0|49=INET|56=WCHVR1|43=N|52=20100201-18:00:32|122=20100201-18:00:32|34=803|10=157|8=FIX.4.0|9=078|35=0|49=INET|56=WCHVR1|43=N|52=20100201-18:01:22|122=20100201-18:01:22|34=804|10=158|8=FIX.4.0|9=087|35=1|49=INET|56=WCHVR1|43=N|52=20100201-18:01:24|122=20100201-18:01:24|34=805|112=_TR_|10=218|8=FIX.4.0|9=078|35=0|49=INET|56=WCHVR1|43=N|52=20100201-18:02:14|122=20100201-18:02:14|34=806|10=164|8=FIX.4.0|9=087|35=1|49=INET|56=WCHVR1|43=N|52=20100201-18:02:15|122=20100201-18:02:15|34=807|112=_TR_|10=222|8=FIX.4.0|9=078|35=0|49=INET|56=WCHVR1|43=N|52=20100201-18:03:05|122=20100201-18:03:05|34=808|10=168|8=FIX.4.0|9=087|35=1|49=INET|56=WCHVR1|43=N|52=20100201-18:03:06|122=20100201-18:03:06|34=809|112=_TR_|10=226|8=FIX.4.0|9=078|35=0|49=INET|56=WCHVR1|43=N|52=20100201-18:03:56|122=20100201-18:03:56|34=810|10=173|8=FIX.4.0|9=087|35=1|49=INET|56=WCHVR1|43=N|52=20100201-18:03:57|122=20100201-18:03:57|34=811|112=_TR_|10=231|8=FIX.4.0|9=078|35=0|49=INET|56=WCHVR1|43=N|52=20100201-18:04:47|122=20100201-18:04:47|34=812|10=177|8=FIX.4.0|9=087|35=1|49=INET|56=WCHVR1|43=N|52=20100201-18:04:48|122=20100201-18:04:48|34=813|112=_TR_|10=235|8=FIX.4.0|9=078|35=0|49=INET|56=WCHVR1|43=N|52=20100201-18:05:38|122=20100201-18:05:38|34=814|10=181|8=FIX.4.0|9=087|35=1|49=INET|56=WCHVR1|43=N|52=20100201-18:05:39|122=20100201-18:05:39|34=815|112=_TR_|10=239|8=FIX.4.0|9=078|35=0|49=INET|56=WCHVR1|43=N|52=20100201-18:06:29|122=20100201-18:06:29|34=816|10=185|8=FIX.4.0|9=078|35=0|49=INET|56=WCHVR1|43=N|52=20100201-18:07:19|122=20100201-18:07:19|34=817|10=186|8=FIX.4.0|9=087|35=1|49=INET|56=WCHVR1|43=N|52=20100201-18:07:21|122=20100201-18:07:21|34=818|112=_TR_|10=228|8=FIX.4.0|9=078|35=0|49=INET|56=WCHVR1|43=N|52=20100201-18:08:11|122=20100201-18:08:11|34=819|10=174|8=FIX.4.0|9=087|35=1|49=INET|56=WCHVR1|43=N|52=20100201-18:08:12|122=20100201-18:08:12|34=820|112=_TR_|10=223|8=FIX.4.0|9=078|35=0|49=INET|56=WCHVR1|43=N|52=20100201-18:09:02|122=20100201-18:09:02|34=821|10=169|8=FIX.4.0|9=087|35=1|49=INET|56=WCHVR1|43=N|52=20100201-18:09:03|122=20100201-18:09:03|34=822|112=_TR_|10=227|8=FIX.4.0|9=078|35=0|49=INET|56=WCHVR1|43=N|52=20100201-18:09:53|122=20100201-18:09:53|34=823|10=183|8=FIX.4.0|9=087|35=1|49=INET|56=WCHVR1|43=N|52=20100201-18:09:54|122=20100201-18:09:54|34=824|112=_TR_|10=241|8=FIX.4.0|9=078|35=0|49=INET|56=WCHVR1|43=N|52=20100201-18:10:44|122=20100201-18:10:44|34=825|10=169|8=FIX.4.0|9=087|35=1|49=INET|56=WCHVR1|43=N|52=20100201-18:10:45|122=20100201-18:10:45|34=826|112=_TR_|10=227|8=FIX.4.0|9=078|35=0|49=INET|56=WCHVR1|43=N|52=20100201-18:11:35|122=20100201-18:11:35|34=827|10=173|8=FIX.4.0|9=087|35=1|49=INET|56=WCHVR1|43=N|52=20100201-18:11:36|122=20100201-18:11:36|34=828|112=_TR_|10=231|8=FIX.4.0|9=078|35=0|49=INET|56=WCHVR1|43=N|52=20100201-18:12:26|122=20100201-18:12:26|34=829|10=177|8=FIX.4.0|9=087|35=1|49=INET|56=WCHVR1|43=N|52=20100201-18:12:27|122=20100201-18:12:27|34=830|112=_TR_|10=226|8=FIX.4.0|9=078|35=0|49=INET|56=WCHVR1|43=N|52=20100201-18:13:17|122=20100201-18:13:17|34=831|10=172|8=FIX.4.0|9=087|35=1|49=INET|56=WCHVR1|43=N|52=20100201-18:13:18|122=20100201-18:13:18|34=832|112=_TR_|10=230|8=FIX.4.0|9=078|35=0|49=INET|56=WCHVR1|43=N|52=20100201-18:14:08|122=20100201-18:14:08|34=833|10=176|8=FIX.4.0|9=087|35=1|49=INET|56=WCHVR1|43=N|52=20100201-18:14:09|122=20100201-18:14:09|34=834|112=_TR_|10=234|8=FIX.4.0|9=078|35=0|49=INET|56=WCHVR1|43=N|52=20100201-18:14:59|122=20100201-18:14:59|34=835|10=190|8=FIX.4.0|9=078|35=0|49=INET|56=WCHVR1|43=N|52=20100201-18:15:49|122=20100201-18:15:49|34=836|10=191|8=FIX.4.0|9=087|35=1|49=INET|56=WCHVR1|43=N|52=20100201-18:15:51|122=20100201-18:15:51|34=837|112=_TR_|10=233|8=FIX.4.0|9=078|35=0|49=INET|56=WCHVR1|43=N|52=20100201-18:16:41|122=20100201-18:16:41|34=838|10=179|8=FIX.4.0|9=087|35=1|49=INET|56=WCHVR1|43=N|52=20100201-18:16:42|122=20100201-18:16:42|34=839|112=_TR_|10=237|8=FIX.4.0|9=078|35=0|49=INET|56=WCHVR1|43=N|52=20100201-18:17:32|122=20100201-18:17:32|34=840|10=174|8=FIX.4.0|9=087|35=1|49=INET|56=WCHVR1|43=N|52=20100201-18:17:33|122=20100201-18:17:33|34=841|112=_TR_|10=232|8=FIX.4.0|9=078|35=0|49=INET|56=WCHVR1|43=N|52=20100201-18:18:23|122=20100201-18:18:23|34=842|10=178|8=FIX.4.0|9=087|35=1|49=INET|56=WCHVR1|43=N|52=20100201-18:18:24|122=20100201-18:18:24|34=843|112=_TR_|10=236|8=FIX.4.0|9=078|35=0|49=INET|56=WCHVR1|43=N|52=20100201-18:19:14|122=20100201-18:19:14|34=844|10=182|8=FIX.4.0|9=087|35=1|49=INET|56=WCHVR1|43=N|52=20100201-18:19:15|122=20100201-18:19:15|34=845|112=_TR_|10=240|8=FIX.4.0|9=078|35=0|49=INET|56=WCHVR1|43=N|52=20100201-18:20:05|122=20100201-18:20:05|34=846|10=168|8=FIX.4.0|9=078|35=0|49=INET|56=WCHVR1|43=N|52=20100201-18:20:55|122=20100201-18:20:55|34=847|10=179|8=FIX.4.0|9=087|35=1|49=INET|56=WCHVR1|43=N|52=20100201-18:20:57|122=20100201-18:20:57|34=848|112=_TR_|10=239|8=FIX.4.0|9=078|35=0|49=INET|56=WCHVR1|43=N|52=20100201-18:21:47|122=20100201-18:21:47|34=849|10=185|8=FIX.4.0|9=087|35=1|49=INET|56=WCHVR1|43=N|52=20100201-18:21:48|122=20100201-18:21:48|34=850|112=_TR_|10=234|8=FIX.4.0|9=078|35=0|49=INET|56=WCHVR1|43=N|52=20100201-18:22:38|122=20100201-18:22:38|34=851|10=180|8=FIX.4.0|9=087|35=1|49=INET|56=WCHVR1|43=N|52=20100201-18:22:39|122=20100201-18:22:39|34=852|112=_TR_|10=238|8=FIX.4.0|9=078|35=0|49=INET|56=WCHVR1|43=N|52=20100201-18:23:29|122=20100201-18:23:29|34=853|10=184|8=FIX.4.0|9=078|35=0|49=INET|56=WCHVR1|43=N|52=20100201-18:24:19|122=20100201-18:24:19|34=854|10=185|8=FIX.4.0|9=087|35=1|49=INET|56=WCHVR1|43=N|52=20100201-18:24:21|122=20100201-18:24:21|34=855|112=_TR_|10=227|8=FIX.4.0|9=078|35=0|49=INET|56=WCHVR1|43=N|52=20100201-18:25:11|122=20100201-18:25:11|34=856|10=173|8=FIX.4.0|9=087|35=1|49=INET|56=WCHVR1|43=N|52=20100201-18:25:12|122=20100201-18:25:12|34=857|112=_TR_|10=231|8=FIX.4.0|9=078|35=0|49=INET|56=WCHVR1|43=N|52=20100201-18:26:02|122=20100201-18:26:02|34=858|10=177|8=FIX.4.0|9=087|35=1|49=INET|56=WCHVR1|43=N|52=20100201-18:26:03|122=20100201-18:26:03|34=859|112=_TR_|10=235|8=FIX.4.0|9=078|35=0|49=INET|56=WCHVR1|43=N|52=20100201-18:26:53|122=20100201-18:26:53|34=860|10=182|8=FIX.4.0|9=087|35=1|49=INET|56=WCHVR1|43=N|52=20100201-18:26:54|122=20100201-18:26:54|34=861|112=_TR_|10=240|8=FIX.4.0|9=078|35=0|49=INET|56=WCHVR1|43=N|52=20100201-18:27:44|122=20100201-18:27:44|34=862|10=186|8=FIX.4.0|9=087|35=1|49=INET|56=WCHVR1|43=N|52=20100201-18:27:45|122=20100201-18:27:45|34=863|112=_TR_|10=244|8=FIX.4.0|9=078|35=0|49=INET|56=WCHVR1|43=N|52=20100201-18:28:35|122=20100201-18:28:35|34=864|10=190|8=FIX.4.0|9=087|35=1|49=INET|56=WCHVR1|43=N|52=20100201-18:28:36|122=20100201-18:28:36|34=865|112=_TR_|10=248|8=FIX.4.0|9=078|35=0|49=INET|56=WCHVR1|43=N|52=20100201-18:29:26|122=20100201-18:29:26|34=866|10=194|8=FIX.4.0|9=087|35=1|49=INET|56=WCHVR1|43=N|52=20100201-18:29:27|122=20100201-18:29:27|34=867|112=_TR_|10=252|8=FIX.4.0|9=078|35=0|49=INET|56=WCHVR1|43=N|52=20100201-18:30:17|122=20100201-18:30:17|34=868|10=180|8=FIX.4.0|9=087|35=1|49=INET|56=WCHVR1|43=N|52=20100201-18:30:18|122=20100201-18:30:18|34=869|112=_TR_|10=238|8=FIX.4.0|9=078|35=0|49=INET|56=WCHVR1|43=N|52=20100201-18:31:08|122=20100201-18:31:08|34=870|10=175|8=FIX.4.0|9=087|35=1|49=INET|56=WCHVR1|43=N|52=20100201-18:31:09|122=20100201-18:31:09|34=871|112=_TR_|10=233|8=FIX.4.0|9=078|35=0|49=INET|56=WCHVR1|43=N|52=20100201-18:31:59|122=20100201-18:31:59|34=872|10=189|8=FIX.4.0|9=078|35=0|49=INET|56=WCHVR1|43=N|52=20100201-18:32:49|122=20100201-18:32:49|34=873|10=190|8=FIX.4.0|9=087|35=1|49=INET|56=WCHVR1|43=N|52=20100201-18:32:51|122=20100201-18:32:51|34=874|112=_TR_|10=232|8=FIX.4.0|9=078|35=0|49=INET|56=WCHVR1|43=N|52=20100201-18:33:41|122=20100201-18:33:41|34=875|10=178|8=FIX.4.0|9=087|35=1|49=INET|56=WCHVR1|43=N|52=20100201-18:33:42|122=20100201-18:33:42|34=876|112=_TR_|10=236|8=FIX.4.0|9=078|35=0|49=INET|56=WCHVR1|43=N|52=20100201-18:34:32|122=20100201-18:34:32|34=877|10=182|8=FIX.4.0|9=087|35=1|49=INET|56=WCHVR1|43=N|52=20100201-18:34:33|122=20100201-18:34:33|34=878|112=_TR_|10=240|8=FIX.4.0|9=078|35=0|49=INET|56=WCHVR1|43=N|52=20100201-18:35:23|122=20100201-18:35:23|34=879|10=186|8=FIX.4.0|9=087|35=1|49=INET|56=WCHVR1|43=N|52=20100201-18:35:24|122=20100201-18:35:24|34=880|112=_TR_|10=235|8=FIX.4.0|9=078|35=0|49=INET|56=WCHVR1|43=N|52=20100201-18:36:14|122=20100201-18:36:14|34=881|10=181|8=FIX.4.0|9=087|35=1|49=INET|56=WCHVR1|43=N|52=20100201-18:36:15|122=20100201-18:36:15|34=882|112=_TR_|10=239|8=FIX.4.0|9=078|35=0|49=INET|56=WCHVR1|43=N|52=20100201-18:37:05|122=20100201-18:37:05|34=883|10=185|8=FIX.4.0|9=087|35=1|49=INET|56=WCHVR1|43=N|52=20100201-18:37:06|122=20100201-18:37:06|34=884|112=_TR_|10=243|8=FIX.4.0|9=078|35=0|49=INET|56=WCHVR1|43=N|52=20100201-18:37:56|122=20100201-18:37:56|34=885|10=199|8=FIX.4.0|9=087|35=1|49=INET|56=WCHVR1|43=N|52=20100201-18:37:57|122=20100201-18:37:57|34=886|112=_TR_|10=001|8=FIX.4.0|9=078|35=0|49=INET|56=WCHVR1|43=N|52=20100201-18:38:47|122=20100201-18:38:47|34=887|10=203|8=FIX.4.0|9=087|35=1|49=INET|56=WCHVR1|43=N|52=20100201-18:38:48|122=20100201-18:38:48|34=888|112=_TR_|10=005|8=FIX.4.0|9=078|35=0|49=INET|56=WCHVR1|43=N|52=20100201-18:39:38|122=20100201-18:39:38|34=889|10=207|8=FIX.4.0|9=087|35=1|49=INET|56=WCHVR1|43=N|52=20100201-18:39:39|122=20100201-18:39:39|34=890|112=_TR_|10=000|8=FIX.4.0|9=078|35=0|49=INET|56=WCHVR1|43=N|52=20100201-18:40:29|122=20100201-18:40:29|34=891|10=184|8=FIX.4.0|9=087|35=1|49=INET|56=WCHVR1|43=N|52=20100201-18:40:30|122=20100201-18:40:30|34=892|112=_TR_|10=224|8=FIX.4.0|9=078|35=0|49=INET|56=WCHVR1|43=N|52=20100201-18:41:20|122=20100201-18:41:20|34=893|10=170|8=FIX.4.0|9=087|35=1|49=INET|56=WCHVR1|43=N|52=20100201-18:41:21|122=20100201-18:41:21|34=894|112=_TR_|10=228|8=FIX.4.0|9=078|35=0|49=INET|56=WCHVR1|43=N|52=20100201-18:42:11|122=20100201-18:42:11|34=895|10=174|8=FIX.4.0|9=087|35=1|49=INET|56=WCHVR1|43=N|52=20100201-18:42:12|122=20100201-18:42:12|34=896|112=_TR_|10=232|8=FIX.4.0|9=078|35=0|49=INET|56=WCHVR1|43=N|52=20100201-18:43:02|122=20100201-18:43:02|34=897|10=178|8=FIX.4.0|9=087|35=1|49=INET|56=WCHVR1|43=N|52=20100201-18:43:03|122=20100201-18:43:03|34=898|112=_TR_|10=236|8=FIX.4.0|9=078|35=0|49=INET|56=WCHVR1|43=N|52=20100201-18:43:53|122=20100201-18:43:53|34=899|10=192|8=FIX.4.0|9=087|35=1|49=INET|56=WCHVR1|43=N|52=20100201-18:43:54|122=20100201-18:43:54|34=900|112=_TR_|10=232|8=FIX.4.0|9=078|35=0|49=INET|56=WCHVR1|43=N|52=20100201-18:44:44|122=20100201-18:44:44|34=901|10=178|8=FIX.4.0|9=087|35=1|49=INET|56=WCHVR1|43=N|52=20100201-18:44:45|122=20100201-18:44:45|34=902|112=_TR_|10=236|8=FIX.4.0|9=078|35=0|49=INET|56=WCHVR1|43=N|52=20100201-18:45:35|122=20100201-18:45:35|34=903|10=182|8=FIX.4.0|9=087|35=1|49=INET|56=WCHVR1|43=N|52=20100201-18:45:36|122=20100201-18:45:36|34=904|112=_TR_|10=240|8=FIX.4.0|9=078|35=0|49=INET|56=WCHVR1|43=N|52=20100201-18:46:26|122=20100201-18:46:26|34=905|10=186|8=FIX.4.0|9=078|35=0|49=INET|56=WCHVR1|43=N|52=20100201-18:47:16|122=20100201-18:47:16|34=906|10=187|8=FIX.4.0|9=087|35=1|49=INET|56=WCHVR1|43=N|52=20100201-18:47:18|122=20100201-18:47:18|34=907|112=_TR_|10=247|8=FIX.4.0|9=078|35=0|49=INET|56=WCHVR1|43=N|52=20100201-18:48:08|122=20100201-18:48:08|34=908|10=193|8=FIX.4.0|9=078|35=0|49=INET|56=WCHVR1|43=N|52=20100201-18:48:58|122=20100201-18:48:58|34=909|10=204|8=FIX.4.0|9=087|35=1|49=INET|56=WCHVR1|43=N|52=20100201-18:49:00|122=20100201-18:49:00|34=910|112=_TR_|10=227|8=FIX.4.0|9=078|35=0|49=INET|56=WCHVR1|43=N|52=20100201-18:49:50|122=20100201-18:49:50|34=911|10=183|8=FIX.4.0|9=087|35=1|49=INET|56=WCHVR1|43=N|52=20100201-18:49:51|122=20100201-18:49:51|34=912|112=_TR_|10=241|8=FIX.4.0|9=078|35=0|49=INET|56=WCHVR1|43=N|52=20100201-18:50:41|122=20100201-18:50:41|34=913|10=169|8=FIX.4.0|9=087|35=1|49=INET|56=WCHVR1|43=N|52=20100201-18:50:42|122=20100201-18:50:42|34=914|112=_TR_|10=227|8=FIX.4.0|9=078|35=0|49=INET|56=WCHVR1|43=N|52=20100201-18:51:32|122=20100201-18:51:32|34=915|10=173|8=FIX.4.0|9=087|35=1|49=INET|56=WCHVR1|43=N|52=20100201-18:51:33|122=20100201-18:51:33|34=916|112=_TR_|10=231|8=FIX.4.0|9=078|35=0|49=INET|56=WCHVR1|43=N|52=20100201-18:52:23|122=20100201-18:52:23|34=917|10=177|8=FIX.4.0|9=087|35=1|49=INET|56=WCHVR1|43=N|52=20100201-18:52:24|122=20100201-18:52:24|34=918|112=_TR_|10=235|8=FIX.4.0|9=078|35=0|49=INET|56=WCHVR1|43=N|52=20100201-18:53:14|122=20100201-18:53:14|34=919|10=181|8=FIX.4.0|9=087|35=1|49=INET|56=WCHVR1|43=N|52=20100201-18:53:15|122=20100201-18:53:15|34=920|112=_TR_|10=230|8=FIX.4.0|9=078|35=0|49=INET|56=WCHVR1|43=N|52=20100201-18:54:05|122=20100201-18:54:05|34=921|10=176|8=FIX.4.0|9=078|35=0|49=INET|56=WCHVR1|43=N|52=20100201-18:54:55|122=20100201-18:54:55|34=922|10=187|8=FIX.4.0|9=087|35=1|49=INET|56=WCHVR1|43=N|52=20100201-18:54:57|122=20100201-18:54:57|34=923|112=_TR_|10=247|8=FIX.4.0|9=078|35=0|49=INET|56=WCHVR1|43=N|52=20100201-18:55:47|122=20100201-18:55:47|34=924|10=193|8=FIX.4.0|9=087|35=1|49=INET|56=WCHVR1|43=N|52=20100201-18:55:48|122=20100201-18:55:48|34=925|112=_TR_|10=251|8=FIX.4.0|9=078|35=0|49=INET|56=WCHVR1|43=N|52=20100201-18:56:38|122=20100201-18:56:38|34=926|10=197|8=FIX.4.0|9=087|35=1|49=INET|56=WCHVR1|43=N|52=20100201-18:56:39|122=20100201-18:56:39|34=927|112=_TR_|10=255|8=FIX.4.0|9=078|35=0|49=INET|56=WCHVR1|43=N|52=20100201-18:57:29|122=20100201-18:57:29|34=928|10=201|8=FIX.4.0|9=078|35=0|49=INET|56=WCHVR1|43=N|52=20100201-18:58:19|122=20100201-18:58:19|34=929|10=202|8=FIX.4.0|9=087|35=1|49=INET|56=WCHVR1|43=N|52=20100201-18:58:21|122=20100201-18:58:21|34=930|112=_TR_|10=235|8=FIX.4.0|9=078|35=0|49=INET|56=WCHVR1|43=N|52=20100201-18:59:11|122=20100201-18:59:11|34=931|10=181|8=FIX.4.0|9=087|35=1|49=INET|56=WCHVR1|43=N|52=20100201-18:59:12|122=20100201-18:59:12|34=932|112=_TR_|10=239|8=FIX.4.0|9=078|35=0|49=INET|56=WCHVR1|43=N|52=20100201-19:00:02|122=20100201-19:00:02|34=933|10=157|8=FIX.4.0|9=087|35=1|49=INET|56=WCHVR1|43=N|52=20100201-19:00:03|122=20100201-19:00:03|34=934|112=_TR_|10=215|8=FIX.4.0|9=078|35=0|49=INET|56=WCHVR1|43=N|52=20100201-19:00:53|122=20100201-19:00:53|34=935|10=171|8=FIX.4.0|9=087|35=1|49=INET|56=WCHVR1|43=N|52=20100201-19:00:54|122=20100201-19:00:54|34=936|112=_TR_|10=229|8=FIX.4.0|9=078|35=0|49=INET|56=WCHVR1|43=N|52=20100201-19:01:44|122=20100201-19:01:44|34=937|10=175|8=FIX.4.0|9=087|35=1|49=INET|56=WCHVR1|43=N|52=20100201-19:01:45|122=20100201-19:01:45|34=938|112=_TR_|10=233|8=FIX.4.0|9=078|35=0|49=INET|56=WCHVR1|43=N|52=20100201-19:02:35|122=20100201-19:02:35|34=939|10=179|8=FIX.4.0|9=087|35=1|49=INET|56=WCHVR1|43=N|52=20100201-19:02:36|122=20100201-19:02:36|34=940|112=_TR_|10=228|8=FIX.4.0|9=078|35=0|49=INET|56=WCHVR1|43=N|52=20100201-19:03:26|122=20100201-19:03:26|34=941|10=174|8=FIX.4.0|9=087|35=1|49=INET|56=WCHVR1|43=N|52=20100201-19:03:27|122=20100201-19:03:27|34=942|112=_TR_|10=232|8=FIX.4.0|9=078|35=0|49=INET|56=WCHVR1|43=N|52=20100201-19:04:17|122=20100201-19:04:17|34=943|10=178|8=FIX.4.0|9=087|35=1|49=INET|56=WCHVR1|43=N|52=20100201-19:04:18|122=20100201-19:04:18|34=944|112=_TR_|10=236|8=FIX.4.0|9=078|35=0|49=INET|56=WCHVR1|43=N|52=20100201-19:05:08|122=20100201-19:05:08|34=945|10=182|8=FIX.4.0|9=078|35=0|49=INET|56=WCHVR1|43=N|52=20100201-19:05:58|122=20100201-19:05:58|34=946|10=193|8=FIX.4.0|9=087|35=1|49=INET|56=WCHVR1|43=N|52=20100201-19:06:00|122=20100201-19:06:00|34=947|112=_TR_|10=225|8=FIX.4.0|9=078|35=0|49=INET|56=WCHVR1|43=N|52=20100201-19:06:50|122=20100201-19:06:50|34=948|10=181|8=FIX.4.0|9=087|35=1|49=INET|56=WCHVR1|43=N|52=20100201-19:06:51|122=20100201-19:06:51|34=949|112=_TR_|10=239|8=FIX.4.0|9=078|35=0|49=INET|56=WCHVR1|43=N|52=20100201-19:07:41|122=20100201-19:07:41|34=950|10=176|8=FIX.4.0|9=087|35=1|49=INET|56=WCHVR1|43=N|52=20100201-19:07:42|122=20100201-19:07:42|34=951|112=_TR_|10=234|8=FIX.4.0